:020000041000EA
:4000000000400208230100100D00000085010010000000000000000000000000000000000000000000000000000000008101001000000000000000008101001081010010E9
:400040008101001081010010810100108101001081010010810100108101001081010010810100108101001081010010810100108101001081010010810100108101001060
:400080008101001081010010810100108101001081010010810100108101001081010010810100108101001081010010810100108101001081010010810100108101001020
:4000C00010B5064C2378002B07D1054B002B02D0044800E000BF0123237010BD300500080000000054270010084B10B5002B03D00749084800E000BF07480368002B00D1BC
:4001000010BD064B002BFBD09847F9E7000000003405000854270010E8000008000000007047FFF7FDFF72B60F4C104DAC4209DA21686268A368043B02DBC858D050FAE73B
:400140000C34F3E70A490B4A0020521A02DD043A8850FCDC084809490860BFF34F8F00F0E3F800F01DF8FEE7582700107027001030050008080700080000000808ED00E0AE
:40018000FEE7FEE700B504207146084202D0EFF3098001E0EFF30880043001F003F9FEE710B562B6014800F03FF9FEE70000081010B5002000F036FF10BD0000F8B5E0233B
:4001C000504C9B00E2580F231340D022990092000919885807224C4D0240032A05D0042A05D0002A0FD0494811E028680FE0C022920089581F220A40112A01D0132A04D1D9
:400200008020000203E0424801E0FA20C001002B27D1B223B1210322DB00C900E658635867581B0F3F0F1340174205D0354F7958090F0A40012A01D1F20701D4032B3AD1F4
:40024000B023344ADB00E658A158E758C904C90C01F060FBB603F901B60BC90F7043013127E0012B27D1C823C0210322DB00C900E658635867583F0F174205D0214F795888
:40028000090F0A40012A01D1F20703D49B009B0F032B10D1C0227F23D200A758A1583B401F27A658090A3940584301F033FB310C394001F02FFBE0239B00E3589B069B0F73
:4002C000D840154B68601C691969240A090E013101F020FBE1B2A860013101F01BFB0F4BE860286104000E49C01801F013FBFA210C4B28758900E01801F00CFBA861C003AF
:40030000E861F8BD00002640C000000800366E0100127A0084050000000021403F420F0040420F00E703000010B5254801F0ECFAB022E0213020234CD200A35889005B001F
:400340005B08A35063588343635080235B04A3501D4A1E4BE250A02204339201E250FF221B4BE25001F0BEFAC02201215200A3588B43A35000F014F9FFF720FFB0235B0585
:400380005A78002A02D05B78212B03D10022114BDA605A60104C80212200042000F0D6FC2000103000F04CFD0C4B1B6851331B78002B02D00A4800F07FFD00F01BFC10BDEC
:4003C0009C2600100000264001000200840500008C050000E00023404C05000804070008681A0010024BD86F032318407047C0460400214010B501F054F8074A074BD16F4E
:400400000B4007490B43D367102306490A681A42FCD001F04AF810BD04002140FCFF00000100FA058800214070B50F4C060001F038F8E36F0500DB439B0701D1FFF7DAFFD5
:40044000B0230A4A9B00D650E26F094B09491340094A1343E36710230A681A42FCD0280001F023F870BDC0460400214000002140FCFF0000880021400300FA05174B70B5F0
:400480001B681C003F342478844224D9032922D8002902D1072A0CD91DE0012902D10F2A07D918E0022902D1032A02D913E0002A11D11D0003269C6870331B7871352D78B8
:4004C0001A40C0233140A9409B00C018800011430151002000E0024870BDC0460407000801004A00F0B5032835D8002802D107290CD930E0012802D10F2907D92BE00228AB
:4005000002D1032902D926E0002924D1134B1B681D001C0073352F78032570342678013424789A68A4462C00BC402700340072331B7831409C4023003B4380273F063B431A
:40054000194363462840984080230843DB00D050D358002000E00248F0BDC0460407000801004A0010B5072812D8FF2910D8094B80001A680902130074331C889368E31824
:4005800018180268044B134019430160002000E0024810BD04070008FF00FFFF01004A00F0B596218FB0002000F014FF00F0EAFE5A4C002810D100F0D7FEC0235B00E3584D
:4005C000574ADB0703D4A3585B005B08A3508021A35809060B43A350012001F0C3F8E8215048514D436C89012B400B434364426C0190120AD2B23A2A04D1436C4B4A1340B5
:400600000B43436400234A491A004A4801F028F9002349491A00494801F022F9002348491A00484801F01CF9C220012300224649C00001F015F9A0220321D200A358434EC7
:400640008B43A35033681A001F0088321968126808378A181168294011601A68F96F51180A681202120A100080225204104308601968FA6F3E338A1811680D4015601A787A
:400680000296002A07D0E0210F25244A890052582248AA4342501A78002A05D0E021302089006258824362501B78002B06D0E02280219200A35809060B43A35000210120F0
:4006C00000F0C8FC0021022000F0C4FC0021032000F0C0FC0021042000F0BCFC0021080000F0B8FC1A4E05AD2B00320083CA83C303CA03C3280000F0D5FC0396002800D092
:40070000FEE78027134A3F06A35813483B43A35000F024FD014E041E20D0FEE7000026400C05000000002740FF00FFFFFFC5FFDF0E0E0040010E0000000200402902000018
:40074000070B0040040B000000060040040700089C1A0010087F0000400D0300B04BB14AF1580A40F250F158AF4A0A40F250F2583A43F250043BF158AC4A0A40F250F1582D
:40078000AB4A0A40802189010A438021F250F25809020A43F250019B1A68A64B1340802252001343019A136001F03CF8A24A6421B35820001F43B7500127B358BB433B4328
:4007C000B35000F007FE3A0021000520FFF756FE1E213800FFF7C6FE39002000FFF782FE220039001320FFF749FE029B934E1B6893491A0076329B6812883800D218136893
:4008000033400B4313602100FFF76CFE220039001420FFF733FE220021001520FFF72EFE18212000FFF79EFE21002000FFF75AFE3A0039001620FFF721FE029B38001A6824
:4008400093687632191D1388CB181A68390016407C4A16431E600626FFF744FE220039001720FFF70BFE032221001820FFF706FE31210320FFF776FE03212000FFF732FEBD
:40088000022221003920FFF7F9FD31210220FFF769FE02212000FFF725FE6B4A6B4B1A6033006343039A0134D318197E18005A7E1F7D5B7D12021B023B430A4319001430B2
:4008C0008378C0781B040B4300061843002101F0B6F80C2CE4D1002623007343039A0136D3181F005C377A78387812020243B878110000040200F87864330A43000659786D
:4009000010431A7809020A43997809041143DA787B7912060A4339791B020B43B97909040B43F9790906194301F080F8122ED3D1474C0023210034315A5C46481218C818FF
:400940004078023310700A2BF6D101228321424B49001A60414B1E321A60414A414B1A60414A13680B43136023002A00403343CB43C243CB43C243CB43C229003B4800F0B4
:4009800041F923002A00643313CB13C213CB13C213CB13C22900364800F034F9354C2A002300083343CB43C243CB43C243CB43C22900314800F026F923002A002C3343CB8F
:4009C00043C243CB43C243CB43C229002B4800F019F923002A00503343CB43C243CB43C243CB43C22900264800F00CF923002A00743313CB13C213CB13C213CB13C2290063
:400A0000204800F0FFF880221F4B12061A6002221E4B1A601E4A1F4B1A600FB0F0BDC04604050000FEFCFFFFFFFF00FFFFF0FFFFFF8FFFFFFFFCFFFF0C050000FF0000FF85
:400A400000F30100004FC3000300FA05F00121409C1B001000283440047934400879344010220000A00138400079344000003240800232401C1C0010000332408003324083
:400A8000800432400005324000001D4100031D4101001180000E1F41044B1B681A00B03212881B6A5043C0187047C04604070008034B1B68B4331B68C0180068C00F7047E1
:400AC000040700081E4A0300904238D010D840282ED005D8002831D010282DD119482EE0802827D08021100049008B4227D023E0154A904214D008D8A022120690421DD0B7
:400B0000124AA020934211D016E0114A904209D0104A904208D0104A90420DD10F480EE0A42003E00E480AE00E4808E0C00306E00D4804E00D4802E00D4800E0002070474A
:400B40000600520001005000010000F0090000A0040000F0050000F0030000F00100520002005200030052000200500005005200FF00520010B50020FFF78EFFFFF798FF6B
:400B800000280CD1074B1868FFF79CFF0122064B1B685B689A609A68002AFCD100E0034810BDC046DC06000804070008020050000D4B10B51861002805D002230370FD3378
:400BC000437000234380094B1B681A0050321278002A08D051331B78002B04D002220449002000F0C9F910BDDC060008040700085101000810B502481430FFF7D9FF10BDF2
:400C0000DC06000830B5002830D000292ED0184BCD681B689A695C69821AD209120112190C6804601C007D342478241825601C007E3424780D69241825601C007F342478F0
:400C40004D69241825601C007C3424788D68241825604C68803384611B7818188B690360CB69002013600B6A536000E0014830BD0407000801005A00064B1B68B4331B68C8
:400C8000C3181B68002B03DA89B24160002000E0014870470407000801008A000368002B01DB034803E089B2C26081600020704701008A00064B1B68B4331B68C3181B6878
:400CC000002B03DAC36800200B6000E0014870470407000801008A00F8B5184B0D001B681A0031321278824224D9002922D01F240A6814401ED11900B0310E88104F70439B
:400D00001E6AD2088619210068683E6000F097FE21003000FFF7B0FF21002A003868FFF7BDFF011E04D13868FFF7A6FF031E02D0044B00E0044B1800F8BDC0460407000885
:400D4000F406000801018A0003018A0010B5002A0DD1002914D10B4B1A681300B0331B885843136AC018084B1860080009E0002906D0054B5960191D9A60FFF7ADFF00E0A5
:400D8000024810BD04070008F406000803018A00194BF7B51A680193D76804003B680E00834223D90025A94202D100F07AFB0500019B18680368002B01DB104C10E063090B
:400DC0005A01A41A0122A24079689B00CB18196811420DD00024914319600021FFF74CFF002E07D1280000F060FB03E0044C01E0044CF2E72000FEBDF406000803018800D3
:400E000004018A00020188000A4B1B68DA68136883420DD9430999005B01C31A0120984052688B581840431E9841034BC01800E002487047F40600080001880004018A00F1
:400E4000024B1A68002A00D11860704700070008F0B52C246043154C1F0024681E0A2018FF2427403440124E1B0C356807602E6A44608360B0352D886F43BF19076127000B
:400E800080377F01F71964010A4D476134191F043B436419236000238361059BC2610162002B01D01B888381F0BDC046000700080407000808100000F0B5038985B002ADC7
:400EC0002B80144B02681B68066ADB8E476A9B18AB7043680095826AC16A040003930369C068FFF7B5FF00213B000A0000913000FFF7AEFF216B280000F0DAF90023EA5EC8
:400F0000002A05DB1F231A401E3B9340024A136005B0F0BD0407000800E100E0F7B52C25124C6843276801933C182669002E08D04D4379198869002805D13568002D02DA21
:400F400003E00B4811E00B480FE06768012425004B689D4013882D041D431560F2608C61BC40019BA4B24B62B460FEBD0007000804028A0007028A002C235843064B1B6825
:400F80001818C369934204D9036A9200D150002000E002487047C046000700080A028A0073B5002642690400D56801962B0CB34221D01B0413601368194B00691B68B43325
:400FC0001B68C3181B68B34215DA01A9FFF772FEB0420CD10198E26903681E0C0378934205D2226A9B009B58002B00D0984731002069FFF741FEADB2002D0ED063691D6017
:4010000000251B68636AAB4202D09847656203E0A36A002B00D09847A56163691B6873BD040700082C2310B55843034B1B681818FFF7B6FF10BDC04600070008044B1030A8
:401040001B6880021B69C0580F2318407047C04604070008104B1B683C331B78834219D904290FD94B1EFF3B132B13D81F2319400A4B8000C018C02304229B00C15040338D
:40108000C25005E00723D0301940044B8000C150002000E002487047040700080000264001004A00F0B5B024244BE4001A59002A42DB02689203910BC279551EAA4112063F
:4010C0000A431A5102891E4D12042A4011008288C024D204D20C0A431A49A4055A50FF21C67A828936010E40174912020A400F213243867A31400A431600827B120722406D
:40110000110032000A43B121C9005A50E0228779D2003F02174039000C4E0D4A9C59144021439951018A9A5909040D40094900200A402A439A5100E00748F0BD00002640BF
:401140000000FF018405000000FF1F008C050000FFF8FFFFFFFF00FE03004A00F7B580210600050004272F4B2F4C0906E2580A43E2500093B223DB00E3583B4206D1002DBA
:4011800004D0012000F0E6F8013DF3E7B1218020C9006358254A80051340034363500192002E01D0002D06D0B0228021D200A35809060B43A3500127B223DB00E3583B4269
:4011C00006D1002D13D0012000F0C4F8013DF3E7002E01D0002D0CD0B122C0210020D200A35889050B43A350864217D119E0002EF2D0B122D200A35801990B40802189055E
:401200000B43A350083AA3585B005B08A350009B009AE3585B005B08A35001E0002D00D10348FEBD8C05000000002640FFFFFFCF02004A00134B30B51D6807222B002833F3
:401240001B78012B13D183081C00944319D19C00021BD20091402B6820331B191C6861400800FF21914001406140196009E00240802000060243802080012B680918890000
:40128000CA5030BD04070008064B10309A68064B9A4203D183009858995002E0034B8000C058704700ED00E00000000800000010F7B5061E019142D00023C05E002804DB04
:4012C000B178FFF7B7FF002400E01E4C0023F05E7668B601002815DB0321FF250140C9008D40C027AC46184B82089200D218BF00D3591D0063469D43FF2333408B402B43CD
:40130000D35113E00F2281B20A40083A0F4B92089200D218032319409940FC331D0033408D408B40D769AF433B43D361074B9A68074B9A4204D10199FFF7A6FF00E0014CEA
:401340002000FEBD0100560000E100E000ED00E00000000810B5034B1B78584300F098F810BDC046D400000880220020034B12069A649B6C834200DA014870470000274002
:40138000030046008022054B120198585B68DBB2002B02D08023DB021843704700002640FEE7000002680A4B10B51A6042685A6082689A60C268DA6002691A6142695A61CF
:4013C00082699A61C269DA61FFF7EAFF10BDC04610050008F0B51924002800D14B342A4B03261A688C42A4411300A8331F8813686442FD182B68B34323432B601368234D75
:40140000FF183B682B403B601300AA331B8815685F193D68B5432C433C6014681B4D1B191C6825401D60002808D00023102924D921338B429B415B4201331EE0130055337E
:401440001C780300A14218D9130056331C780123A14212D9130057331C780223A1420CD9130058331C783300A14206D9130059331B788B42404105231B1A0F21526810685B
:40148000884303431360F0BD04070008FFFCFFFF0230800803D001300238FCD1C046C0467047EFF3108072B6704780F310887047B0235B055A782120002A01D05878C0B2D1
:4014C0007047B0235B059A89002A02D0988980B201E080204000704770B5FFF7F2FF8022194B5200904215D119680F240B00022098330A681B68D3181A68A24302431A604A
:401500000A009C320B6812689A181368A3430343136017E0B0241B680C4A6405A5581A009832196812688A18C0211068890029430143116019009C311A680B68D318044A78
:40154000A2581A6070BDC04604070008481800004418000070B5FFF7B4FF8022194B5200904215D119680F240B00032098330A681B68D3181A68A24302431A600A009C328C
:401580000B6812689A181368A3430343136017E01B68B0251A00983219681268C1248A18C0216D0564012E598900106831430143116019009C311A680B68D3182A591A6091
:4015C00070BDC0460407000810B5FFF77AFF8022104B52001B6890420CD1190098311A680B68D21811680C4B0B40C021C9010B4313600EE0B021094A490588581900983186
:401600001A680B68D318C0221968920002430A431A6010BD04070008FF8FFFFF1818000070B5FFF74EFF8022144B52001B6890420CD1190098311A680B68D2181168104BAB
:401640000B408021C9010B43136015E01A00983219681268B0258A18C0210A4C6D052E598900106831430143116019009C311A680B68D3182A591A6070BDC0460407000845
:40168000FF8FFFFF4C18000010B50020FFF7D6FC0400FFF70DFF0123222801D863426341180010BD70B50400FFF702FF85B2FFF708FF06000020FFF7C1FC80235B000028BF
:4016C00011D19E4211D1222D35D880221D4B1E491B6824065D681D4B6E585204144033401C436C502CE09E4223D0164A1268156A9E4203D1002C05D1154A06E0002C03D16E
:40170000144A02E0144A00E0144A01212800FFF7C5FA002813D10B4B1B68B4331B68EB181A68002AFCDBEB6800201B0EA02B06D106E0222D03D9034B1B681D6ADAE7084841
:4017400070BDC0460407000818F00000FFFFFFFE010000300100000C010100300300000C04004200F7B50700FFF7ABFE80235B00984209D0FFF795FEB0230190234D244A8D
:401780005B05002F06D012E0FFF77EFF0028F1D1204E38E0AF50E8220120D2009C5CFFF781FFE4B2061E20D1FFF796FE11E01A4903205958A9501F21184A9C5C184AE4B29D
:4017C000AB588B4314390B43AB50FFF7C3FDFFF727FF1F2312491C406A589A4314436C50002F06D1FFF7F0FE3E000198FFF75DFE09E00720FFF7AEFDFFF7ACFE0020FFF78C
:4018000051FF0600F1E73000FEBDC04600002640307F00000300420010180000410700001CFF000010B50C4B042803D11A68104318600FE0094A000612681400A034116818
:4018400022688A18C02189040840042110601A688A431A6010BDC04610E000E004070008F7B504000093F0234C401B0105000E0017001C4030D1FFF714FE184B19680B00F6
:401880006E331B889A08013A3240920001926C2294468C446246128894468A686A31098894440E40360A5E43019A624496193368EAB29B0A9B02002F01D00134FF3400998D
:4018C0004D02802189000D4015431D432C433460FFF7EBFD002000E00148FEBD040700080100CE00C0228020064952008B58C0059B009B08034380208B508B5800060343AA
:401900008B50704700002640014B18607047C04604070008002243088B4274D303098B425FD3030A8B4244D3030B8B4228D3030C8B420DD3FF22090212BA030C8B4202D363
:401940001212090265D0030B8B4219D300E0090AC30B8B4201D3CB03C01A5241830B8B4201D38B03C01A5241430B8B4201D34B03C01A5241030B8B4201D30B03C01A5241A1
:40198000C30A8B4201D3CB02C01A5241830A8B4201D38B02C01A5241430A8B4201D34B02C01A5241030A8B4201D30B02C01A5241CDD2C3098B4201D3CB01C01A52418309B6
:4019C0008B4201D38B01C01A524143098B4201D34B01C01A524103098B4201D30B01C01A5241C3088B4201D3CB00C01A524183088B4201D38B00C01A524143088B4201D3CD
:401A00004B00C01A5241411A00D20146524110467047FFE701B5002000F006F802BDC0460029F7D076E770477047C046002310B59A4203D0CC5CC4540133F9E710BD0300EF
:401A40008218934202D019700133FAE770470000F8B5C046F8BC08BC9E467047F8B5C046F8BC08BC9E467047030000000100000001000000000000000503600004000000D3
:401A80000100000000000000010000000604600008000000BC060008B1010010F4010000140004010A0009050800000063010000002034407400802034407400002234406E
:401AC0007400802234407400002434407400802434407400002634407400802634407400002834407400802834407400002A34407400802A3440740000213440B41C0010FB
:401B00009000000000233440441D00109000000000253440D41D00109000000000273440641E00109000000000293440F41E001090000000002B3440841F00109000000065
:401B400000603440142000107C00000080603440902000107C000000006134400C2100107C00000080613440882100107C00000000623440042200107C000000806234404B
:401B8000802200107C00000000633440FC2200107C00000080633440782300107C00000000643440F42300107C00000080643440702400107C00000000653440EC2400100C
:401BC0007C00000080653440682500107C000000140136013E405C046301000010000000100000000002000000000A0000000000000000000000000000000000000000003D
:401C00000F0000000C0000005000000068AA00000000000000000000000000001212000000000000000000000000000000000000004000BA00000000080000000000000001
:401C40000000000000001D1D0000000000000000000000004000000000000000020000000000000000000000000000000500000020000000000400007777F60000000000DB
:401C800000000000000000000000000000000000500000000000000000000000000006060000000000000000000000000000000008000800000000000000000000000000B8
:401CC000FFFFFFFFFFFFFFFFFFFFFFFFFFFFFFFFFFFFFFFFFF000000FFFFFFFFFFFFFFFFFFFFFFFFFFFFFFFFFFFFFFFFFF000000000000000000000000000000000000000E
:401D00000000000000000000FFFFFFFFFFFFFFFFFFFFFFFF1111111111111111111111111111111111111111111111111111111111111111111111111111111111111111C3
:401D400011111111000000000000000000000000FFFFFFFFFFFFFFFFFFFFFFFFFFFFFFFFFFFFFFFFFF000000FFFFFFFFFFFFFFFFFFFFFFFFFFFFFFFFFFFFFFFFFF00000049
:401D80000000000000000000000000000000001F0000000000000000FFFFFFFFFFFFFFFFFFFFFFFF1111111111111111111111111111111111111111111111111111111134
:401DC0001111111111111111111111111111111111111111000000000000000000000000FFFFFFFFFFFFFFFFFFFFFFFFFFFFFFFFFFFFFFFFFF000000FFFFFFFFFFFFFFFFAC
:401E0000FFFFFFFFFFFFFFFFFFFFFFFFFF000000000000000000000000000000000000000000000000000000FFFFFFFFFFFFFFFFFFFFFFFF111111111111111111111111EF
:401E4000111111111111111111111111111111111111111111111111111111111111111111111111000000000000000000000000FFFFFFFFFFFFFFFFFFFFFFFFFFFFFFFF0E
:401E8000FFFFFFFFFF000000FFFFFFFFFFFFFFFFFFFFFFFFFFFFFFFFFFFFFFFFFF000000000000000000000000000000000000000000000000000000FFFFFFFFFFFFFFFF44
:401EC000FFFFFFFF111111111111111111111111111111111111111111111111111111111111111111111111111111111111111111111111010000000000000000000000B5
:401F0000FFFF4FFFFFFFFFFFFFFFFFFFFFFFFFFFFFFFFFFFFF000000FFFFFFFFFFFFFFFFFFFFFFFFFFFFFFFFFFFFFFFFFF000000000000000000000000000000000000007B
:401F40000F00400000000000FFFFFFFFFFFFFFFFFFFFFFFF1111111111111111111111111111111111111111111111111121111111111D1111111111111111111111111116
:401F800011111111000000000000000000000000FFFFFFFFFFFFFFFFFFFFFFFFFFFFFFFFFFFFFFFFFF000000FFFFFFFFFFFFFFFFFFFFFFFFFFFFFFFFFFFFFFFFFF00000007
:401FC000000000000000000000000000000000000000000000000000FFFFFFFFFFFFFFFFFFFFFFFF1111111111111111111111111111111111111111111111111111111111
:40200000111111111111111111111111111111111111111100000000000000001F1F1F1F1F1F1F1F1F1F1F1F1F1F1F1F1F1F1F1F1F1F1F1F1F1F1F1F1F1F1F1F000000006C
:402040000000000000000000000000000000000000000000FFFFFFFFFFFFFFFFFFFFFFFF11111111111111111111111111111111111111111111111111111111111111114C
:402080001111111111111111111111111111111100000000000000001F1F1F1F1F1F1F1F1F1F1F1F1F1F1F1F1F1F1F1F1F1F1F1F1F1F1F1F1F1F1F1F000000000000000030
:4020C000000000000000000B0000000000000000FFFFFFFFFFFFFFFFFFFFFFFF1111111111111111111111111111111111111111111111111111111111111011111111117E
:4021000011111111111111111111111100000000000000001F1F1F1F1F1F1F1F1F1F1F1F1F1F1F1F1F1F1F1F1F1F1F1F1F1F1F1F1F1F1F1F000000000000000000000000F3
:40214000000000000000000000000000FFFFFFFFFFFFFFFFFFFFFFFF111111111111111111111111111111111111111F1111111111111111111110111111111111111111B6
:40218000111111111111111100000000000000001F0B1F1F1F1F1F1F1F1F1F1F1F1F1F1F1F1F1F1F1F1F1F1F0C0B0310101F1F1F000000000000000000000000000000002C
:4021C0000000000000000000FFFFFFFFFFFFFFFFFFFFFFFF11111111111111111181111111F111111111111F121111111111111111111011111111111111111111111111A1
:402200001111111100000000000000001F1F1F1F1F1F1F1F1F1F1F1F1F1F1F1F1F1F1F1F1F1F1F1F1F1F1F1F1F1F1F1F000000000000000000000000000000000F00F0007B
:4022400000000000FFFFFFFFFFFFFFFFFFFFFFFF11111111111111111111111111D111111111111D111111111111111111111111111111111111111111111111111111116E
:4022800000000000000000001F1F1F1F1F1F1F1F1F1F1F1F1F1F1F1F1F1F1F1F1F1F1F1F1F1F1F1F1F1F1F1F0000000000000000000000000000000000000000000000003E
:4022C000FFFFFFFFFFFFFFFFFFFFFFFF11111111111111111111111111111111111111111111111111111111111111111111111111111111111111111111111100000000BA
:40230000000000001F1F1F1F1F1F1F1F1F1F1F1F1F1F1F1F1F1F1F1F1F1F1F1F1F1F1F1F1F1F1F1F000000000000000000000000000000000000000000000000FFFFFFFFC1
:40234000FFFFFFFFFFFFFFFF111111111111111111111111111111111111111111111111111111111111111111111111111111111111111111111111000000000000000035
:402380001F1F1F1F011F1F1F1F1F1F1F1F1F1F1F1F1F1F1F1F1F1F1F1F1F1F1F1F1F1F1F0000000000000000000000000000001F0000000000000000FFFFFFFFFFFFFFFF44
:4023C000FFFFFFFF11111111111111111111E11111111111111111111111111111111111111111111111111111111111111111111111111100000000000000001F1F1F1F65
:402400001F1F1F1F1F1F1F1F1F1F1F1F1F1F1F1F1F1F1F1F1F1F1F1F1F1F1F1F000000000000000000000000000000000000000000000000FFFFFFFFFFFFFFFFFFFFFFFF44
:4024400011111111111111111111111111111111111111111111111111111111111111111111111111111111111111111111111100000000000000001F1F1F1F1F1F1F1F34
:402480001F1F1F1F1F1F1F1F1F1F1F1F1F1F1F1F1F1F1F1F1F1F1F1F000000000000000000000000000000000000000000000000FFFFFFFFFFFFFFFFFFFFFFFF11111111FC
:4024C000111111111111111111111111111111111111111111111111111111111111111111111111111111111111111100000000000000001F1F1F1F1F1F1F1F1F1F1F1F7C
:402500001F1F1F1F1F1F1F1F1F1F1F1F1F1F1F1F1F1F1F1F000000000000000000000000000000000000000000000000FFFFFFFFFFFFFFFFFFFFFFFF1111111111111111B3
:402540001111111111111111111111111111111111111111111111111111111111111111111111111111111100000000000000001F1F1F1F1F1F1F1F1F1F1F1F1F1F1F1FC3
:402580001F1F1F1F1F1F1F1F1F1F1F1F1F1F1F1F000000000000000000000000000000000000000000000000FFFFFFFFFFFFFFFFFFFFFFFF1111111111111111111111116B
:4025C000111111111111111111111111111111111111111111111111111111111111111111111111000020400000244000000040000000000000234000003040000031402F
:4026000000009F40000022400000104002020202020202020210101D800017007500FF030602063604102000000000007FC0000000040000000000000019324B647D0080FA
:402640004000080B100000000000FF012002001F00800004FF081018001000140018001C4044484C50000000081000000800000004000000041000000012000004210000D4
:40268000002100000016000040114002C41300138013A013200000001C0000000000214000002540000001400000344000002440000031400000324000001F41000023405F
:4026C00000001140010101010101010101101010800019005500F0000501053B04101C01010000000FC000000004000001010101011D3A5778960008200010120800000014
:40270000001F00000010000F002000023F06080E00080009000A000B24282C3034000000100000009000000088000000080000008000000004F0000000F000004002000006
:402740002005A000D00100018001A0012000000010000000000000000000001000000008C000000078270010C00000085004000030050008D80100000048E80100127A00FA
:4027800000093D0000093D0000093D0004000000A00F00000000D007E9000010C10000100000000080B230B5C00020D0104B07211C682300B0331B885943236ACB181A68EE
:4027C000002AFCDA3E220B4B06251A600A4A0B4B1A60A3220A4BD2009D500A4A98509858206A09180020486099580029FCDA30BD04070008040126401E1F000008012640DB
:40280000000026401C05000010B54378FF2B11D100F0C2F90400042000F0AEF9C3685A68012311681943116011681942FCD1200000F08AF910BDF7B507000020019100F06E
:402840009BF93C4B06001B681A005033B43215681B784519002B27D000F066F9009003283CD1062000F088F900F07EF9041E5DD100F052F9304B984258D0304A23002100C6
:402880001269012000F068F9041E4FD1002000F043F9294A2A4B904203D09C4246D00134F4E79C421AD141E000F076F9234A04000121300000F040F9002808D1002F08D0CF
:4028C0002B68002BFCDB00F077F9050002E01D4D00E01D4D200000F037F928E000F05CF91A4B1B4A0400D358002B06DA134A0121300000F021F9002801D0124D0CE0019821
:40290000FFF750FF002F06D02B68002BFCDB00F053F9050000E00C4D009B032BDAD10121002000F031F90028F9D1D3E7054D2800FEBDC0460407000801018800DC06000800
:40294000F049020005005200010050001C05000000002640F0B5674C85B0236803905B68019300F021F9212846D1236807251A00B032128855431A6AAA1811680029FCDADE
:402980000220D1680143D160D168C9072FD5D1681E00029108218C469C44614688361C683068C96F6118241868460F6824680089240A24060443FF203F0200040740274319
:4029C0009024D76008684C4A240110402043086030681968091808680240144362460C601968D26F8A18126832688A1812681B6AED1800236B606B680421404A13690B43F7
:402A00001361039B012B01D030BF00E020BF39490A680C001300B033188807234343126A9B181A68002AFCDA00F0BEF8212830D1236807261A00B032128856431A6AB218BD
:402A4000D168C9071ED519000831CF6F1968CF193868D568FF22284912022D0A154008400400280020433860180088301C68006820181C6A05683419E4682940240C224068
:402A80000A43026002221B6AF618F3689343F36022E0019BFC331B69002B1DD1A323184A1849194E194FDB000D68D45830680F600627D7503E233360154B3E37D750D75874
:402AC000002FFCDA019B134AFC331A61A3230C4ADB000D60D4503060064B1A681300B033198807234B43126A9B1800225A6005B0F0BDC04604070008FF00FFFF00ED00E0A4
:402B00000000264008012640040126401E1F00001C050000AAAAAAAA01B40248844601BC604700BF090E001001B40248844601BC604700BFE503001001B40248844601BCD2
:402B4000604700BF9D0C001001B40248844601BC604700BFAB14001001B40248844601BC604700BF1D0F001001B40248844601BC604700BFB10A001001B40248844601BC16
:402B8000604700BF990A001001B40248844601BC604700BF910D001001B40248844601BC604700BFA314001001B40248844601BC604700BFB114001001B40248844601BC68
:402BC000604700BF750B00100000000000000000000000000000000000000000000000000000000000000000000000000000000000000000000000000000000000000000DF
:020000041008E2
:4000000000780408EB0208100D00000051030810510308105103081051030810000000000000000000000000000000004D0308104D030810000000004D0308104D030810DA
:400040004D0308104D0308104D0308104D0308104D0308104D0308104D0308104D0308104D0308104D0308104D0308104D0308104D0308104D0308104D0308104D03081000
:400080004D0308104D0308104D0308104D0308104D0308104D0308104D0308104D0308104D0308104D0308104D0308104D0308104D0308104D0308104D0308104D030810C0
:4000C0004D0308104D0308104D0308104D0308104D0308104D0308104D0308104D0308104D0308104D0308104D0308104D0308104D0308104D0308104D0308104D03081080
:400100004D0308104D0308104D0308104D0308104D0308104D0308104D0308104D0308104D0308104D0308104D0308104D0308104D0308104D0308104D0308104D0308103F
:400140004D0308104D0308104D0308104D0308104D0308104D0308104D0308104D0308104D0308104D0308104D0308104D0308104D0308104D0308104D0308104D030810FF
:400180004D0308104D0308104D0308104D0308104D0308104D0308104D0308104D0308104D0308104D0308104D0308104D0308104D0308104D0308104D0308104D030810BF
:4001C0004D0308104D0308104D0308104D0308104D0308104D0308104D0308104D0308104D0308104D0308104D0308104D0308104D0308104D0308104D0308104D0308107F
:400200004D0308104D0308104D0308104D0308104D0308104D0308104D0308104D0308104D0308104D0308104D0308104D0308104D0308104D0308104D0308104D0308103E
:400240004D0308104D0308104D0308104D0308104D0308104D0308104D0308104D0308104D0308104D0308104D0308104D0308104D0308104D0308104D0308104D030810FE
:400280004D0308104D0308104D03081010B5054C237833B9044B13B10448AFF300800123237010BDD848020800000000A8770810084B10B51BB108490848AFF3008008480C
:4002C000036803B910BD074B002BFBD0BDE81040184700BF00000000DC480208A877081084430208000000007047FFF7FDFF72B6104C114DAC4209DA21686268A368043B80
:40030000A2BFC858D050FAE70C34F3E70B490C4A00209142BCBF41F8040BFAE709480A490860BFF34F8F00F09BFA00F075FA00F0B7F8FEE7B4770810CC770810D848020814
:40034000A44C02080040020808ED00E0FEE7FEE700B504207146084202D0EFF3098001E0EFF30880043001F0FFFCFEE7002808DB4209012300F01F0003FA00F0014B43F836
:400380002200704700E100E0002809DB4309012200F01F0002FA00F06033024A42F82300704700BF00E100E0084B1A6A084BC3F83022D3F83032074B01221A70064B0222E2
:4003C000DA60082243F8742C704700BF3872081000003840F448020880033240F8B52D4C002501F016FD6560A560E56025616561A561E56125626562A56225636563A36B2A
:4004000000260746E6624BB942F2107001F08AFC4FF07E53E363256401230AE0A36B012B09D142F2107001F07DFC1B4BE56323640223A36326E0A36B022B09D142F2107084
:4004400001F070FC4FF07E53E56323640323F0E7A36B032B0AD142F2107001F063FC4FF07E53E3630C4B23640423E2E7A36B042B08D142F2107001F055FC4FF08043E363B0
:400480002564A663054B01221A603846BDE8F84001F0C3BCF4480208000080BF8C4202082DE9F0478AB062B6704E714D714C00F075FE7149304601F007FC7049284601F01E
:4004C00003FC6F49204601F0FFFBB6F900100846FFF75AFF0846FFF749FFB5F90010694D0846FFF751FF0846FFF740FFB4F90010654C0846FFF748FF0846FFF737FF634962
:40050000204601F0E1FBB4F900100846FFF73CFF0846FFF72BFF5E4B0022C3F80C21C3F84C2100F0D5F901F005FF01F0C1FE01F0D5FE01F0E9FEA8462C46564A4FF00001C4
:400540002B78002BFCD088F800105368012BF7D101F05FFC064600F05FFC304601F05DFC666CE768206902F0FBF8CDE90201384602F0F6F83346484ACDE900017D2147486A
:4005800003F0B2FA4549464801F041F94549444801F03DF901F03DFC064600F015FD304601F03BFCE66B276CD4F80490D4F808A0A06A02F0D5F8CDE90801504602F0D0F86E
:4005C000CDE90601484602F0CBF8CDE90401384602F0C6F8CDE90201304602F0C1F8324ACDE900017D212D4803F07EFA2B492C4801F00DF92B492A4801F009F901F009FCD9
:40060000064600F085FA304601F007FC6669A769D4F81C90606A02F0A3F8CDE90601484602F09EF8CDE90401384602F099F8CDE90201304602F094F81C4ACDE900017D21F0
:40064000164803F051FA1549154801F0E0F81549134801F0DCF801F0DCFB06466069A16900F030FA304601F0D8FB66E7707008105070081048700810A9030810610F081068
:40068000950F0810F448020868700810DD030810000038408C420208406F0810684B0208000066400A7008108F6F0810C86F0810012001F04BB87047514B524AD3F880038D
:4006C00000F00F00810001F1804101F5181130B5D1F8403303F00704032C07D0042C07D0494B4A49002C08BF0B460EE013680CE0D1F8003303F01F03112B01D0132B02D18D
:400700004FF4004301E04FF4FA433D4930BBD1F89045D1F88805D1F8885515F0405FC0F3017005D0D1F88815C1F30171012901D1E40701D403283AD13149D1F88005D1F81B
:400740008445D1F88015C0F31100C1F30061C4F30C040131B3FBF4F3434326E0012826D1D1F84046D1F80006D1F8005615F0405F05D0D1F80016C1F30171012901D1E107A0
:4007800003D4C0F30171032911D11D48D0F80016D0F80046D0F8000601F07F014B43C4F30421B3FBF1F3C0F30441B3FBF1F31449D1F88013C1F30111CB4015495360D1F8B5
:4007C00090000969090E0131B3FBF1F19160C0F307210131B3FBF1F303F57421D360136101F23F210B48B1FBF0F103F2E73311754FF47A71B3FBF1F39361DB03D36130BDDF
:4008000000002640BC42020800366E0100127A000000214040420F0008B50D4801F00AFBFFF749FFFFF748FF00221146042000F021FE084800F0A2FE074B1B6893F8513037
:4008400013B1064800F0D2FEBDE8084000F0ACBD80710810604902083C4C02080C70081008B501F0D6FA074AD2F8883043F47003C2F88830BFF34F8FBFF36F8FBDE80840E4
:4008800001F0CBBA00ED00E070B50E4C0E4E002529462046356001F0B4FC29460246204601F0B8FC29460246204601F0E3FC074B30601D60D4F81032C4F83032D4F8303282
:4008C00070BD00BF00001D41044C02088C42020808B5054801F0B8FD002001F07DFD034B0122C3F8382208BD8908081000001D4107EE100A07EE901A0D4BB5EEC07AF1EE2D
:4009000010FA4FF001014FF00202F5EEC07AABBF996059605A609A600421F1EE10FA4FF00802ABBF996059605A609A60704700BF800432400000000007EE900AF5EEC07AFD
:40094000F1EE10FAB8BFF1EE677A38B517EE900A01F006FF34A3D3E9002304460D4602F0CFF900285AD132A3D3E900232046294602F0C6F950B12CA3D3E9002320462946B7
:4009800001F090FD2CA3D3E9002324E02CA3D3E900232046294602F0B3F950B12AA3D3E900232046294601F07DFD29A3D3E9002311E029A3D3E900232046294602F0A0F952
:4009C00080B127A3D3E900232046294601F068FD25A3D3E9002302F041F804F0B5FC02F0ADF938BD22A3D3E900232046294602F087F9A8B120A3D3E900232046294601F042
:400A00004FFD1FA3D3E9002302F028F804F09CFC02F094F96428A8BF642038BD002038BD642038BDAFF30080107A36AB3E57BB3F107A36AB3E57CB3F732EC55565DF853FC9
:400A40003546EBA86A82D43F05FA449E245DDB3F8F5033A48AE2953FB8E4B8533A58DB3F02B7EEE6A90ECD3F732EC55565DF653FFAB31F2922C3DE3FF37684D38217D13F51
:400A8000C2BE9D44847F613F142808B511DD642811DC01F053FE0022084B01F0B5FE0022074B01F0DBFF04F04FFC02F06FF980B208BD002008BD40F2272008BD003881408C
:400AC000000059402DE9F0410C468046FFF734FF06462046FFF730FF074601F09AF9414605462046FFF704FF3846FFF7CDFF064CC4F80C013046FFF7C7FFC4F84C012846F8
:400B0000BDE8F04101F089B900003840000000002DE9F04FB04B2DED048B1B68012B83B040F04381AD4DDFF8E8A2DFF8E8B2DFF8C882DBED009A9AED009A2868A84C01F080
:400B40000FFE04F089FCD8ED008A94ED008A064628680F4601F004FE04F04EFD79EEC97ACDE9000117EE900A01F0FAFD32463B4601F04AFE78EEC87A064617EE900A0F4630
:400B800001F0EEFDDDE9002301F03EFE02460B463046394601F086FC924B064618680F4601F0DEFD02460B463046394601F02CFE02F00CF98C4B1860D8ED008A94ED008A2F
:400BC0009BED007ADAED007A884C77EE677A17EE900A01F0C5FD78EEC87A06460F4617EE900A01F0BDFD32463B46814F04F048FD3E6880467000894601F0A0FD70A3D3E9A9
:400C0000002301F001FE42464B4601F04BFC02F0DDF8784B206022681A602068D5ED007A94ED008ACDED007A01F09AFD66A3D3E9002301F037FC80460098D5ED008A894632
:400C400001F08EFD02460B464046494601F028FC78EE687A8046F0EEE77A17EE900A21F0004901F07DFD02460B464046494602F03DF8CDF800A060B1206801F071FD52A35D
:400C8000D3E9002301F00EFC02F0A0F80136206036E02068D5F800A094ED008AD5ED008A01F05EFD48A3D3E9002301F0F9FB80465046894601F054FD02460B4640464946A1
:400CC00001F0EEFB78EE687A8046F0EEE77A17EE900A21F0004901F043FD02460B464046494602F003F860B1206801F039FD36A3D3E9002301F0D4FB02F068F8013E2060BF
:400D00003E603D4BD3ED007A354B93ED007A77EEC77AF0EEE77A17EE900A01F021FD2CA3D3E9002301F0ECFFB0B1009BDBED007A93ED007A77EEC77AF0EEE77A17EE900A00
:400D400001F00EFD22A3D3E9002301F0D9FF18B1284B1A68254B1A60D4ED007A274B95ED007A2749204A77EEC77A93ED007A254B67EE877AF6EE006AC3ED007AD1ED007AC9
:400D800092ED007A204967EEA67AD3ED006AA7EEE67A81ED007AD3ED006A92ED007A1B4BA7EEA67A83ED007A04E0174A00231360164A136003B0BDEC048BBDE8F08F00BFB1
:400DC000182D4454FB210940182D4454FB2119409A9999999999A93F8C42020818490208FC480208B04202082449020810490208204902081449020834490208AC42020820
:400E0000A4420208284902080C49020808490208F848020830490208F8B52DED028B00F0F8FF434E434BD6ED007AD3ED006A424B424F93ED007A424BD7ED005A9FED418AE5
:400E40009FED415A414CF8EEE66AF8EEE77AB7EE006AC6EE074A054687EEA66A93ED007AD3ED017A26EE246AF8EEE55A27EE087A67EE887AA6EE057A85EEA66A83ED007AF3
:400E800066EE246AE6EE857AC3ED017A304BD3ED008A27EE287AB0EE678A77EE077A17EE900A01F05DFC20A3D3E9002301F0ACFC01F08CFF68EE287A206077EEA77A17EEBE
:400EC000900A01F04DFC18A3D3E9002301F09CFC01F07CFF1F4B0022186032603A601E4AD2ED007A1D4AF5EEC07AF1EE10FA42BFD4ED007AF1EE677AC4ED007AD2ED007AF1
:400F0000BDEC028BF5EEC07AF1EE10FA42BFD3ED007AF1EE677AC3ED007A2846BDE8F84000F07BBFAFF30080182D4454FB21094038490208B8420208A04202085C4902084D
:400F4000E04A020880C2F53CEC51783F04490208A8420208004902080C49020808490208094BB3F90030002B09DB5A09012103F01F0301FA03F36032044941F82230044AFC
:400F800013680133136070475070081000E100E038490208094BB3F90030002B09DB5A09012103F01F0301FA03F36032044941F82230044A13680133136070474870081009
:400FC00000E100E05C4902082DE9F04F644D654CDFF8ACA1DFF8ACB1D5ED007A2DED048B9AED008A9BED009A206883B0CDED007A01F0B6FB04F030FA5B4BD3ED008A8046F5
:4010000018EE900A894601F0ABFB78EE097AB6EE009A67EE897A064617EE900A0F4601F09FFB42464B4601F0EFFB32463B4601F0EBFB80460098894601F092FB02460B4658
:401040004046494601F02EFA01F0C0FEDFF838812860D8F800909AED008ADBED009A206801F07EFB04F0C8FA78EE297A024667EE897A0B4617EE900ACDE9002301F070FB32
:40108000DDE9002301F0C0FB32463B4601F0BCFB064648460F4601F063FB02460B463046394601F0FFF901F091FEC8F800009BED007A2E4BDAED006AD4ED007A93ED006AF4
:4010C0002B4B37EE667AC7EE066AE8EEA67AC4ED007A93ED007AD5ED007A77EE677A17EE900A01F03DFB234B93ED007AD8ED007A77EE677A064617EE900A0F4601F030FBA2
:4011000002460B4601F080FB324604460D463B463046394601F078FB02460B462046294601F0C0F904F0AEFA01F050FE124B1860186801F015FB08A3D3E9002301F0E0FD1A
:4011400010B10E4B00221A6003B0BDEC048BBDE8F08F00BFAFF300807B14AE47E17A843FF848020818490208B4420208A442020830490208344902081C4902088C42020831
:401180000449020800490208FC4802080149024800F042BC084C02080000664010B5114C237853B9104A1149114800F047FB1149114800F089FD012323700F4BB3F9003093
:4011C000002B08DB5909012203F01F0302FA03F30A4A42F82130064A136843F00043136010BD00BFE84A0208084C020888700810000066408D1108108070081000E100E067
:40120000034B1B681A68D3F88430D058000E70473C4C0208044B1B681A68D3F88430D058C0F30720704700BF3C4C0208034B1B68B3F8B0201B6A00FB023070473C4C020839
:40124000034B1B68D3F8B430C058C00F704700BF3C4C02081D4B984236D00FD840282CD005D800282FD010282BD119487047802825D0B0F5807F24D118467047154B984297
:4012800014D008D8B0F1204F1DD0134B984218D14FF4A0007047114B98420AD00133984209D0023B98420CD10D4870474FF4A40070470C4870470C4870470C4870470C48A8
:4012C00070470C4870470020704700BF0600520001005000010000F0090000A0040000F00100520002005200030052000200500005005200FF00520008B50120FFF796FF00
:40130000FFF79EFF60B9074B1868FFF7A3FF064B1B685B6801229A609A68002AFCD108BD024808BDEC4A02083C4C020802005000184B13B5186128B102230370FF23437008
:4013400000234380144A136893F850101446F1B11B8FADF80030114900236846019300F0B3FCBDF90030002B08DB5909012203F01F0302FA03F30A4A42F82130236893F875
:40138000513023B102220749012000F08FF902B010BD00BFEC4A02083C4C02081344020800E100E0E14302080148FFF7C1BF00BF004B0208054B1B68D3F8B430C358002BD0
:4013C000BDBF89B241600020014870473C4C020801008A000368002BBBBF89B2C26002488160B8BF0020704701008A00054B1B68D3F8B430C358002BBDBFC3680B600020ED
:40140000014870473C4C020801008A00F8B5154B0C46196891F83130834221D904B3226812F01F071CD1B1F8B0300D6A0E4E00FB0355D20839466068356001F0DBFE394602
:401440002846FFF7B7FF394622463068FFF7C2FF014618B93068FFF7ADFF10B10348F8BD0348F8BD3C4C0208044B020801018A0003018A0010B404465AB999B90B4B1A68B9
:40148000B2F8B030106A04FB0300094B1860084609E039B1064B5DF8044B5960191D9A60FFF7B4BF03485DF8044B70473C4C0208044B020803018A001C4B1A682DE9F041A3
:4014C000D2F80C80D8F80020824204460D461E4624D919B900F09DFC074600E0002730680368002B01DB124C13E06209D8F804100123A4EB421403FA04F451F822301C4294
:401500000ED023EA040341F8223000240021FFF751FF3DB9384600F080FC03E0054C01E0054CF3E72046BDE8F08100BF044B02080301880004018A00020188000B4B1B6870
:40154000DB681A6882420ED942095968A0EB4210012303FA00F051F822301842044B054818BF184670470448704700BF044B0208010188000001880004018A00024B1A68F8
:4015800002B91860704700BF104B0208F0B52C246043144C059F25685FFA83FE45F800E02C1811480668306AB6F8B060C3F307250EFB0606266105F1800665601B0C00EBC9
:4015C000461600EB451041F20805A36043EA0343666143510023E2612162A3610FB13B88A381F0BD104B02083C4C0208F0B5174B41691B688269DB8EC668076985B002ADFC
:4016000000950B440446C16AADF808300392436A826A006AFFF7BAFF00223B46114600923046FFF7B3FF216B284600F04DFBBDF90830002B08DB5909012203F01F0302FABF
:4016400003F3034A42F8213005B0F0BD3C4C020800E100E0F0B5124C26682C2707FB006425693DB107FB0161886928B92E68002E02DA03E00B48F0BD0B48F0BD4E68D4F8E6
:4016800004E0012404FA06F7168846EA07461660EA608C6104FA0EF4A4B24B62AC60F0BD104B020804028A0007028A00074B10B51C682C2303FB0040C369934283BF036A42
:4016C000002043F82210024810BD00BF104B02080A028A0073B54369DD6800262A0C044601961ED012041A601B68174B00691B68D3F8B430C358B34213DA01A9FFF776FE27
:4017000058B90198E26903681E0CDBB2934204D2226A52F8233003B1984731462069FFF749FEADB265B163691D601B68636A002513B19847656202E0A36A03B19847A561C9
:4017400063691B6802B070BD3C4C0208034B1B682C2202FB0030FFF7BDBF00BF104B0208D0F8003303F00F03072B02D901EB420201E00A4407E0914204D0D0F8403321F879
:40178000023BF8E77047914204D0D0F8403301F8013BF8E7704710B5D0F80843C4F30804944228BF14462246FFF7DAFF204610BDD0F8003203F00F03072B02D901EB420251
:4017C00001E00A4407E0914204D031F8023BC0F84032F8E77047914204D011F8013BC0F84032F8E77047036810B5D0F8084213F4006F14BF80234023C4F308041C1B9442F9
:4018000028BF14462246FFF7D3FF204610BD036813F4006F10B501F1FF3114BF8024402411F8012F42B1D0F80832C3F30803A342F9D0C0F84022F3E710BD00002DE9F043BA
:40184000002800F0D580002900F0D2800F78022F01D18C7F0CB14C68013C0B7F002B8B6804F00F0414BF4FF48036002644F00074092B34BF4FF40065002534432C430460C6
:401880003C0604F0407404644C7F4E7B8D7B002C8C7C14BF4FF040094FF00009002C0C7C14BF4FF480684FF00008002C4C7C14BF4FF4807C4FF0000C002CCC6A04F1FF348F
:4018C00006F1FF364FEA044406F007064FEA051504F4702405F0300544EA060444EA050444EA090444EA080414BF4FF4007E4FF0000E44EA0C0C4CEA0E0491F80CE084647F
:40190000CC7BBEF1000F14BF4FF4807C4FF0000C2CB9022F14BF00244FF4007401E04FF40074013B03F00F034CEA030C4CEA0404C0F800438C6991F814C0240404F47F0435
:4019400044EA0C04C0F81043CC7F24B1012F0CBF4FF48074002435432C43BEF1000F446414BF4FF480740024012F43EA04030CBF4FF4803400242343C0F8003291F83030AA
:40198000C0F8043391F8203091F8214091F82460002B14BF4FF000730023012C91F828400CBF4FF0807500253343012C0CBF4FF4803400242B43234303654C6B91F83830E6
:4019C000C0F8043240F66D332340C96BC0F8C83F40F273730B40C0F8883F00205AB1506090601060D06010621063D062BDE8F0830248BDE8F0831046BDE8F0830160AA0076
:401A000008694B6998422DBF4B69CB694A69C01A3CBFC018801A7047D0F8003E1A072DE9F04705460C4640F1BB80D0F8CC3F13F448730AD04A681A434A60C0F8C03FD0F8FE
:401A4000C03F0B6B0BB110209847D5F8CC3F1B0509D5636843F4006363604FF40063C5F8C03FD5F8C03FD5F8CC3FD80740F19880E269002A43D02B68A16913F4006F2846F1
:401A800014BF40262026FFF786FE236AE2690344121A2362E261EAB9A3687BB1E368D5F804239E4294BF06F1FF3303F1FF3322F0FF02DBB21343C5F804330123C5F8C83FAD
:401AC000636823F001036360236B002B63D00420984760E0D5F80033A16903F00F03072B88BF400008449642A06154D9D5F80433013A23F0FF031A43C5F804234BE0A3682D
:401B0000002B48D02B6813F4006FD5F80833266914BF4FF040084FF02008C3F30809B9F1000F26D0E368676901369E4208BF0026B7420FD1236B0BB10820984763699F4295
:401B400008D10023C5F8C83F0FB17E1E11E0E668013E0EE0D5F84023D5F8003303F00F03072BA36809F1FF3994BF9A5523F81620D5E7266121462846E668FFF741FF301AC0
:401B8000804508D900B10138D5F8043323F0FF031843C5F804030123C5F8C03FD5F8C03FD5F8003E590776D5D5F88C3F13F4A0630AD022681A432260C5F8803FD5F8803F0E
:401BC000236B0BB120209847D5F88C3FDA0750D52B68A26AD5F8006213F4006F14BF80274027012A06F00F0610D9D4F82480E2624146013A2846FFF7F6FDA36A072EA3EBFD
:401C0000000388BF40004044A3626062D5F80832C3F30803BB4227D0A36A012B24D10023A362636A072E94BF1E781E8800F0F1F84FF40073C5F84062C5F8803FD5F8803F36
:401C400000F0EBF8D5F8883F23F4007323F0010343F40073C5F8883F236843F002032360236B0BB1012098470123C5F8803FD5F8803FD5F88C3F9B050DD50022C5F8882FC2
:401C8000236823F001032360236BE2621BB10220BDE8F0471847BDE8F0870000074B9A68074B9A4218BF074A00F1100306BF52F8230042F8231052F82300704700ED00E0AA
:401CC000004002080000081010B5F0B1B0F900304268002BA8BF03F160434FEA4212ADBF03F5614303F00F030A4CD2B2B6BFD2B283F80023E254084B9A68084B9A4206D1D4
:401D0000B0F90000FFF7CAFF01E0054810BD002010BD00BF14ED00E000ED00E0004002080100560038B5094D0446B4F5004F05D9286800F065F8A4F50044F6E7044B18687C
:401D40006043BDE8384000F05BB800BFD8420208D4420208024B1B78584300F051B800BFD0420208FEE7000008B5234B02681A6042685A6082689A60C268DA6002691A61C8
:401D800042695A6182699A61C269DA611B4A916A1962D16A5962516A9962516BD962926B1A63F1EE102A12F0900F21D0026A5A63426A9A63826ADA63C26A1A64026B5A64FE
:401DC000426B9A64826BDA64C26B1A65026C5A65426C9A65826CDA65C26C1A66026D5A66426D9A66826DDA66C26D1A67026E5A67FFF7B8FF08BD00BF6048020800ED00E00E
:401E00000230800803D001300238FCD100BF00BF7047EFF3108072B6704780F3108870474FF0B0535A7812B15878C0B27047212070470000014B1860704700BF3C4C020801
:401E400070B5002867D0002A65D05368D56816691B029CB293689B0403F480232343147F23432C0404F440342343340604F0E06423430C1DA40189010351146843182DB1CF
:401E8000012D02D1C3F8084102E00125C3F8085136B943185569C3F80C519569C3F810514618936CC6F814415C1C15D0156B2D0205F47064956B2D0405F470252543946A59
:401EC00004F00F042543146C2403A4B21B012C43DBB22343C6F82031D56A2D0105F03004556B2D0205F440752543546A04F0030445EA0403D46BA401E4B21C43536C9B002C
:401F0000014403F00C032343C1F82431136AC1F83831002070BD014870BD00BF0100B600F0B5002800F09380002A00F09080146992F8285096681768137FA40404F4802E38
:401F4000946B45EA840435044EEA040405F440352C433D0605F0E06544EA050E146B556B44EA45052D05002B05F4401514BF022300234EEA0504052F44EA03040CBFD3686A
:401F800053681B029BB223430C1DA4018901062F0351546900EB010304D10125C3F808513F250EE01EB9C3F80861312509E0012E19BF0125C3F80851C3F808411C2518BF11
:401FC0001225C3F828514618136AC6F80C31536AC6F810319369C6F81441C6F81831136E5C1C15D0956C2D0205F47064156D2D0405F470252543146C04F00F042543946D5A
:402000002403A4B21B012C43DBB22343C6F82031556C2D0105F03004D56C2D0205F440752543D46B04F0030445EA0403546DA401E4B21C43D36D9B00014403F00C032343A5
:40204000C1F82431D36AC1F838310020F0BD0148F0BD00BF0100B6002DE9F04F00286CD000296AD04A680C68354EDFF8DC8042F0004343608B680361CB6843610B69836124
:402080000B7D02F0040C9B074A6FC3618B69036202F11C7303F58033520093FBF2F31AB2002304F4606E01F1180599464FF4784A55F8047F03F1200B17F0012F40F82B702B
:4020C00008D1BEF5606F05D1BCF1000F02D026F813A001E026F8139048F823200133102BE6D1CB6DC0F81832C0F810320B6EC0F82832C0F820324B6EC0F83832C0F8303247
:4021000091F870304BB16FF04043C0F804338B6EC0F80033CB6EC0F84433D0F8003F3F2B02D0D0F8003F13B90B23C0F8003F44F4001404600020BDE8F08F0248BDE8F08FC0
:40214000404C020801000600604C020830B520B300234FF0031203601D464360026142618361C361036203F120040133102B4FF0000240F82450F6D1C0F81822C0F82822D2
:40218000C0F8382259B16FF04043C0F80433C0F84023C0F84423104630BD024830BD084630BD00BF010006000368002B0ADBD0F8A032002BFBDB036843F000430360022001
:4021C000FFF7C8BD70470F2908D8203150F8213013F0012F0CBF012000207047002070470F2908B502460AD8FFF7EDFF18B95068C0F3C00008BD5068C0F3800008BD00204C
:4022000008BD0F2997BF6031002050F8210080B200B270470F2970B50E46144625D8436819061DD406F1200350F823305A0517D54568C5F302150123013503FA05F543685B
:40224000DB0502D4102D28BF10253146FFF7C8FF18B9A4B2B4FBF5F401E094FBF5F424B2034B33F81620A41A24B2204670BD00BF404C02080F2938B50C4612D843689B0754
:402280000FD4FFF7C7FF084D02B2D317A2FB050105FB0311054B53F82420D31700F0E6FD38BD002038BD00BF80969800604C020810B5074C237833B9064A07480421FFF7B3
:4022C000BFFD01232370044B10229A609A6110BD504B0208387208100000384010B5074C217829B9064A0748FFF71AFE01232370044B01229A609A6110BD00BF514B0208B9
:40230000847208100000384010B5074C237833B9064A07480121FFF703FE01232370044B02229A609A6110BD524B0208E87208100000384010B5074C237833B9064A074805
:402340000321FFF77DFD01232370044B08229A609A6110BD534B02084C7308100000384038B51B4B05691A6892F87010936801F0020141F08041FF2D0446C3F8001408D88D
:40238000B2F874000833C15821F47F4141EA0521C150906892F8701092F8735092F87220032301FA02F2AB40134301F0020143F000430B43C0F80034D0F8003405480021A5
:4023C000FFF7C4FEA1680348BDE83840FFF744BE3C4C020800001D410030034B18BF0120C3F81802704700BF00001D4110B5084C237963B907490848FFF766FC637933B91C
:40240000012363710548BDE81040FFF7A9BF10BD544B020881240810407008109873081010B5074C2379DB0705D4FFF7DFFF237943F0010323710348BDE81040FFF7B4BE94
:40244000544B020800001D4138B50B4C0546FFF7E7FF29462046FFF737FCB4F90030002B08DB5909012203F01F0302FA03F3034A42F8213038BD00BF4070081000E100E060
:40248000044BD3F81022C3F81022D3F81022D3F81032704700001D4181F0004102E000BF83F0004330B54FEA41044FEA430594EA050F08BF90EA020F1FBF54EA000C55EA8C
:4024C000020C7FEA645C7FEA655C00F0E2804FEA5454D4EB5555B8BF6D420CDD2C4480EA020281EA030382EA000083EA010180EA020281EA0303362D88BF30BD11F0004FE0
:402500004FEA01314FF4801C4CEA113102D0404261EB410113F0004F4FEA03334CEA133302D0524263EB430394EA050F00F0A780A4F10104D5F1200E0DDB02FA0EFC22FA7F
:4025400005F2801841F1000103FA0EF2801843FA05F359410EE0A5F120050EF1200E012A03FA0EFC28BF4CF0020C43FA05F3C01851EBE37101F0004507D54FF0000EDCF133
:40258000000C7EEB00006EEB0101B1F5801F1BD3B1F5001F0CD349085FEA30004FEA3C0C04F101044FEA445212F5800F80F09A80BCF1004F08BF5FEA500C50F1000041EB6B
:4025C000045141EA050130BD5FEA4C0C404141EB010111F4801FA4F10104E9D191F0000F04BF01460020B1FA81F308BF2033A3F10B03B3F120020CDA0C3208DD02F1140CA9
:40260000C2F10C0201FA0CF021FA02F10CE002F11402D8BFC2F1200C01FA02F120FA0CFCDCBF41EA0C019040E41AA2BF01EB0451294330BD6FEA04041F3C1CDA0C340EDCE1
:4026400004F11404C4F1200220FA04F001FA02F340EA030021FA04F345EA030130BDC4F10C04C4F1200220FA02F001FA04F340EA0300294630BD21FA04F0294630BD94F007
:40268000000F83F4801306BF81F480110134013D4EE77FEA645C18BF7FEA655C29D094EA050F08BF90EA020F05D054EA000C04BF1946104630BD91EA030F1EBF0021002058
:4026C00030BD5FEA545C05D14000494128BF41F0004130BD14F580043CBF01F5801130BD01F0004545F0FE4141F470014FF0000030BD7FEA645C1ABF194610467FEA655CB5
:402700001CBF0B46024650EA013406BF52EA033591EA030F41F4002130BD00BF90F0000F04BF0021704730B54FF4806404F132044FF000054FF0000150E700BF90F0000F84
:4027400004BF0021704730B54FF4806404F1320410F0004548BF40424FF000013EE700BF42004FEAE2014FEA31014FEA02701FBF12F07F4393F07F4F81F06051704792F0D3
:40278000000F14BF93F07F4F704730B54FF4607401F0004521F0004120E700BF50EA010208BF704730B54FF000050AE050EA010208BF704730B511F0004502D5404261EB8C
:4027C00041014FF4806404F132045FEA915C3FF4DCAE4FF003025FEADC0C18BF03325FEADC0C18BF033202EBDC02C2F1200300FA03FC20FA02F001FA03FE40EA0E0021FA9F
:4028000002F11444C1E600BF70B54FF0FF0C4CF4E06C1CEA11541DBF1CEA135594EA0C0F95EA0C0F00F0DEF82C4481EA030621EA4C5123EA4C5350EA013518BF52EA03354B
:4028400041F4801143F4801338D0A0FB02CE4FF00005E1FB02E506F00042E0FB03E54FF00006E1FB03569CF0000F18BF4EF0010EA4F1FF04B6F5007F64F5407404D25FEA2C
:402880004E0E6D4146EB060642EAC62141EA55514FEAC52040EA5E504FEACE2EB4F1FD0C88BFBCF5E06F1ED8BEF1004F08BF5FEA500E50F1000041EB045170BD06F0004640
:4028C00046EA010140EA020081EA0301B4EB5C04C2BFD4EB0C0541EA045170BD41F480114FF0000E013C00F3AB8014F1360FDEBF002001F0004170BDC4F10004203C35DA16
:402900000C341BDC04F11404C4F1200500FA05F320FA04F001FA05F240EA020001F0004221F0004110EBD37021FA04F642EB06015EEA430E08BF20EAD37070BDC4F10C04B0
:40294000C4F1200500FA04F320FA05F001FA04F240EA020001F0004110EBD37041F100015EEA430E08BF20EAD37070BDC4F1200500FA05F24EEA020E20FA04F301FA05F2CD
:4029800043EA020321FA04F001F0004121FA04F220EA020000EBD3705EEA430E08BF20EAD37070BD94F0000F0FD101F00046400041EB010111F4801F08BF013CF7D041EACD
:4029C000060195F0000F18BF704703F00046520043EB030313F4801F08BF013DF7D043EA0603704794EA0C0F0CEA135518BF95EA0C0F0CD050EA410618BF52EA4306D1D1CD
:402A000081EA030101F000414FF0000070BD50EA410606BF1046194652EA430619D094EA0C0F02D150EA013613D195EA0C0F05D152EA03361CBF104619460AD181EA0301A0
:402A400001F0004141F0FE4141F470014FF0000070BD41F0FE4141F4780170BD70B54FF0FF0C4CF4E06C1CEA11541DBF1CEA135594EA0C0F95EA0C0F00F0A7F8A4EB05044D
:402A800081EA030E52EA03354FEA013100F088804FEA03334FF0805545EA131343EA12634FEA022245EA111545EA10654FEA00260EF000419D4208BF964244F1FD0404F5A8
:402AC000407402D25B084FEA3202B61A65EB03055B084FEA32024FF480104FF4002CB6EB020E75EB030E22BFB61A754640EA0C005B084FEA3202B6EB020E75EB030E22BFAD
:402B0000B61A754640EA5C005B084FEA3202B6EB020E75EB030E22BFB61A754640EA9C005B084FEA3202B6EB020E75EB030E22BFB61A754640EADC0055EA060E18D04FEA88
:402B4000051545EA16754FEA06164FEAC30343EA52734FEAC2025FEA1C1CC0D111F4801F0BD141EA00014FF000004FF0004CB6E711F4801F04BF01430020B4F1FD0C88BF59
:402B8000BCF5E06F3FF6AFAEB5EB030C04BFB6EB020C5FEA500C50F1000041EB045170BD0EF0004E4EEA113114EB5C04C2BFD4EB0C0541EA045170BD41F480114FF0000E98
:402BC000013C90E645EA060E8DE60CEA135594EA0C0F08BF95EA0C0F3FF43BAF94EA0C0F0AD150EA01347FF434AF95EA0C0F7FF425AF104619462CE795EA0C0F06D152EA68
:402C000003353FF4FDAE1046194622E750EA410618BF52EA43067FF4C5AE50EA41047FF40DAF52EA43057FF4EBAE12E74FF0FF3C06E000BF4FF0010C02E000BF4FF0010C6E
:402C40004DF804CD4FEA410C7FEA6C5C4FEA430C18BF7FEA6C5C1BD001B050EA410C0CBF52EA430C91EA030F02BF90EA020F0020704710F1000F91EA030F58BF994208BF78
:402C800090422CBFD8176FEAE37040F0010070474FEA410C7FEA6C5C02D150EA013C07D14FEA430C7FEA6C5CD6D152EA033CD3D05DF8040B704700BF8446104662468C4609
:402CC0001946634600E000BF01B5FFF7B7FF002848BF10F1000F01BD4DF808EDFFF7F4FF0CBF012000205DF808FB00BF4DF808EDFFF7EAFF34BF012000205DF808FB00BF24
:402D00004DF808EDFFF7E0FF94BF012000205DF808FB00BF4DF808EDFFF7CEFF94BF012000205DF808FB00BF4DF808EDFFF7C4FF34BF012000205DF808FB00BF4FEA410277
:402D400012F5001215D211D56FF47873B3EB625212D94FEAC12343F0004343EA505311F0004F23FA02F018BF404270474FF00000704750EA013005D111F0004008BF6FF072
:402D8000004070474FF00000704700BF4A0011D212F5001211D20DD56FF47873B3EB62520ED44FEAC12343F0004343EA505323FA02F070474FF00000704750EA013002D17D
:402DC0004FF0FF3070474FF0000070474FEA4102B2F1E04324BFB3F5001CDCF1FE5C0DD901F0004C4FEAC0024CEA5070B2F1004F40EB830008BF20F00100704711F0804F95
:402E000021D113F13872BCBF01F00040704741F480114FEA5252C2F11802C2F1200C10FA0CF320FA02F018BF40F001004FEAC1234FEAD32303FA0CFC40EA0C0023FA02F38A
:402E40004FEA4303CCE77FEA625307D150EA01331EBF4FF0FE4040F44000704701F0004040F0FE4040F40000704700BF7BB972B90029BEBF00204FF0004106E008BF002874
:402E80001CBF6FF000414FF0FF3000F0B1B9ADF1080C6DE904CE002909DB002B1ADB00F035F8DDF804E0DDE9022304B07047404261EB4101002B1BDB00F028F8DDF804E0A2
:402EC000DDE9022304B0404261EB4101524263EB43037047524263EB430300F017F8DDF804E0DDE9022304B0404261EB41017047524263EB430300F009F8DDF804E0DDE966
:402F0000022304B0524263EB430370472DE9F0478C460E460446089D002B50D18A4217466CD9B2FA82FEBEF1000F0BD0CEF1200420FA04F401FA0EF644EA060C02FA0EF7C3
:402F400000FA0EF44FEA1749220CBCFBF9F01FFA87F809FB10C642EA064600FB08F3B34209D9F61900F1FF3280F02281B34240F21F8102383E44F61AA2B2B6FBF9F309FB6B
:402F8000136642EA064403FB08F8A04509D9E41903F1FF3280F00A81A04540F20781023B3C44C8EB040443EA00400021002D62D024FA0EF400232C606B60BDE8F0878B42B9
:402FC00007D9002D55D0002185E841000846BDE8F087B3FA83F1002940F09080B34202D3824200F2F880841A66EB03060120B446002D40D085E81010BDE8F08712B90127F8
:40300000B7FBF2F7B7FA87FEBEF1000F35D1F31B4FEA17481FFA87FC0121B3FBF8F0220C08FB103642EA06460CFB00F3B34207D9F61900F1FF3202D2B34200F2CE801046B3
:40304000F61AA2B2B6FBF8F308FB136642EA06440CFB03FCA44507D9E41903F1FF3202D2A44500F2B5801346CCEB040443EA00409CE729462846BDE8F087CEF1200106FAA8
:403080000EF307FA0EF720FA01F94FEA1748CE4049EA0309B6FBF8FA4FEA194408FB1A661FFA87FC44EA06430AFB0CF29A4200FA0EF40AD9DB190AF1FF3180F087809A4211
:4030C00040F28480AAF1020A3B449B1A1FFA89F9B3FBF8F108FB113349EA034301FB0CF69E4207D9DB1901F1FF326BD29E4269D902393B449B1B41EA0A418EE7C1F1200E5E
:4031000022FA0EF48B40234320FA0EF706FA01F44FEA134C26FA0EF63C43B6FBFCF9270C0CFB19661FFA83F847EA064609FB08F7B74202FA01F200FA01FA08D9F61809F1B8
:40314000FF3041D2B7423FD9A9F102091E44F61BA0B2B6FBFCF40CFB146640EA064704FB08F8B84507D9FF1804F1FF3028D2B84526D9023C1F4444EA0940C8EB0707A0FB78
:4031800002894F4544464E4614D329D065B3BAEB040367EB060707FA0EFECB40CF404EEA030385E888000021BDE8F0871346F8E61046E0E6B8EB020469EB03060138E5E7DA
:4031C0000446D8E7114695E78146C0E78A467CE7023B3C4448E708460AE702383E442FE7C245E7D33E46D1E72946BDE8F08700BF704700BF02440346934202D003F8011B4B
:40320000FAE770472DE9F04788B0002B149F1299109EDDF84CA01D4627F02007BBBF03F100431D4600232D231446B8BF1446462F0B7003D0452F03D1013601E0032300E0FD
:40324000022307AA049206AA03928DE8480422462B4600F015FD472F804602D1119BDB0728D5462F08EB060911D198F80030302B0AD10022002320462946FFF72DFD18B90D
:40328000C6F10106CAF80060DAF8003099440022002320462946FFF71FFD08B9302202E0CDF81C9006E0079B994503D9591C07911A70F8E7079B159AC8EB03034046136002
:4032C00008B0BDE8F08773B503460029B8BF494203F8022BB4BF2D222B220929427019DD0DF1070216460A2591FBF5F405FB14113031092C02F8011D2146F5DC3031541E68
:4033000002F8011CB4421A460AD214F8012B03F8012BF7E730241A46214402F8024B5970101A02B070BD00002DE9F04F91B00C46DDF8688016461F46054601F03DFA036891
:403340000893184600F002FC00230E93D8F800300990073323F0070303F1080294F818A0D4F800B0C8F80020D3E90023C4E91223D4E9128929F000430B93CDF828804FF055
:40338000FF32A74BDDE90A0101F0BAFFA0B94FF0FF32A34BDDE90A01FFF7B2FC60B90022002340464946FFF7A1FC10B12D2384F843309C4B9C4A0AE042464B464046494658
:4033C00001F09EFF002800F09281984B984ABAF1470F8CBF90469846032323612BF0040323604FF000093DE0BAF1670F00F08A81BAF1470F00F08681236000210DF13302B0
:403400000193636805900292009342464B460691CDF810A0CDF80CE02846FFF7F3FE0AF0DF03472B804600F08481BAF1650F0D9900F28D810139524604F150000D91FFF7CD
:4034400042FF0E9A8318012A8146236100F37C812268D10700F178819DF8333013B12D2384F84330009733460FAA2146284600F09FF9013002D14FF0FF3096E123685A0522
:4034800001D4236965E0BAF1650F40F2D58000220023D4E91201FFF71FFC78B30123654A31462846B8470130E5D00E9B0D9A9A420BDB2368D80708D423689B0740F111818A
:4034C0004FF0000804F1190906E1099B089A31462846B8470130CED04FF0000804F11A090E9B013B9845E7DA01234A4631462846B8470130BFD008F10108F1E70D9B002BA7
:4035000029DC01234B4A31462846B8470130B2D00D9B23B90E9B13B92368D907CCD5099B089A31462846B8470130A4D04FF0000904F11A0A0D9B5B42994509DA012352463F
:4035400031462846B847013095D009F10109F1E70E9B4246A7E00E9AA36D9A42A8BF1A46002A914606DC4FF0000A29EAE97904F11A0B11E01346314642462846B847013040
:40358000F1D178E701235A4631462846B84701303FF471AF0AF1010AA36DC9EB03029245F0DB08EB03090D9A0E9B9A420FDB2368DA070CD40E9B0D9A9844C9EB08089B1A47
:4035C0009845A8BF9846B8F1000F08DC0FE0099B089A31462846B8470130EBD14BE743464A4631462846B84701303FF444AF4FF0000928EAE87804F11A0A09E00123524609
:4036000031462846B84701303FF435AF09F101090D9A0E9B9B1AC8EB03039945EEDB4BE7FFFFEF7F267408102A7408102E74081032740810367408100E9A012A01DCDB0723
:4036400038D50123424631462846B84701303FF412AF099B089A31462846B84701303FF40AAF00220023D4E91201FFF735FB20B14FF0000804F11A0A0EE00E9B08F1010242
:40368000013B19E00123524631462846B84701303FF4F1AE08F101080E9B013B9845F1DB4B4604F1500231462846B84701307FF403AFE0E60123424631462846B847013009
:4036C000EED1D8E601234A4631462846B84701303FF4D1AE08F10108E3680F9A9B1A9845F0DBE0680F9B9842B8BF18465DE06268531C0EA84BF480630DF1340E7FF474AEBB
:40370000062201E012B90122626075E6002106910DF133018DE80C00236005904246CDF810A0CDF80CE002914B462846FFF76AFD80460D9BD81C02DB626893421DDDAAF1E2
:40374000020A5FFA8AFA70E60133236184E6BAF1660F14D10029636807DD216113B92268D2071DD501330B4419E013B92268D00701D5023313E0012311E04FF0670A0D9B54
:403780000E9A934205DB22682361D10708D5013305E0002BD4BFC3F102030123134423610D9BA3654FF0000956E611B0BDE8F08F2DE9F04791461F460A698B68DDF82080DD
:4037C0009342B8BF1346C9F8003091F8432006460C4612B10133C9F800302368990642BFD9F800300233C9F80030256815F0060510D104F1190A07E0012352463946304641
:40380000C04701301AD00135E368D9F800209B1A9D42F1DB94F843302268003318BF012392060FD5E1185A1C302081F84300224494F8451082F84310023303E04FF0FF304C
:40384000BDE8F08704F1430239463046C0470130F4D02268D9F80050E36802F00602042A08BF5D1B2269A3680CBF25EAE57500259342C4BF9B1AED184FF000091A344D457B
:4038800009D00123224639463046C0470130D5D009F10109F3E70020BDE8F0872DE9F04317460A7E85B06E2A984606460C460C9B01F1430E00F0AE8011D8632A22D009D8EF
:4038C000002A00F0BB80582A40F0CA8081F84520834955E0642A1ED0692A1CD0C0E0732A00F0B08009D86F2A2ED0702A40F0B8800A6842F020020A603EE0752A24D0782A43
:403900003AD0ADE01A6801F14205111D1960136884F84230A8E021681A6811F0800F02D0111D196008E011F0400F02F10401196002D0B2F9003000E01368002B3CDA2D2248
:403940005B4284F8432037E021681A6811F0800F02D0111D196007E011F0400F02F10401196001D0138800E01368227E5C496F2A14BF0A2208221BE078225A4984F8452011
:403980002268186812F0800F00F104051D6003D1550601D5038800E00368D00744BF42F0200222601BB9226822F0200222601022002084F8430001E049490A226568A560D4
:4039C000002D08DB206820F0040020602BB9002D7DD175460CE0002B79D07546B3FBF2F002FB1033CB5C05F8013D03460028F5D1082A0BD12368DA0708D5236962689A4274
:403A0000DEBF302305F8013C05F1FF35C5EB0E0323612EE008681A68496910F0800F03D0101D1860136808E010F0400F02F104001860136801D0198000E01960002323612E
:403A4000754616E01A68111D1960156862680021284600F0BDFE08B1401B6060636804E004F1420584F8422001232361002384F84330CDF800803B4603AA21463046FFF74E
:403A800097FE013002D14FF0FF3026E023692A4639463046C0470130F5D023689B0710D5002504F1190907E001234A4639463046C0470130E7D00135E368039A9B1A9D428C
:403AC000F2DBE068039B9842B8BF184605E00B7884F8423004F142058AE705B0BDE8F08338740810497408100CB430B5164B0C1E9DB01D6804DA8B232B604FF0FF301EE076
:403B00004FF40273ADF8143014BF04F1FF332346049307934FF6FF7302900690ADF81630209A21AB02A92846019301F097FA431CBCBF8B232B6014B1029B00221A701DB0E3
:403B4000BDE8304002B070473C430208034613F8012B002AFBD1181A013870472DE9F74F03690C699C42804600F38380013C01F114074FEA840E00F1140657F8245006EBFB
:403B80000E030193013556F82430B3FBF5F507EB0E09002D39D04FF0000A3846B446D34650F8042B93B205FB03A34FEA134A9BB2C3EB0B03120CBCF800B005FB02A213FAA3
:403BC0008BF34FEA124A1FFA82FBDCF80020CBEB124202EB23429BB243EA024381454FEA224B4CF8043BDBD256F80E306BB9019B043B9E421A4602D3C8F8104005E0126862
:403C0000043B002AF8D1013CF3E7404601F049F800282CDB013530464FF0000E57F8041BD0F800C08AB2C2EB0E03090C13FA8CF3C1EB1C4202EB23429BB243EA0243B945B1
:403C40004FEA224E40F8043BE8D256F8242006EB840362B9043B9E421A4602D3C8F8104005E01268043B002AF8D1013CF3E7284600E0002003B0BDE8F08F000000000000F4
:403C80002DE9F04F456A97B08246239CCDE9022345B9102000F094FDCAF82400456085600560C560DAF82430196859B15A684A60012393408B60504600F01AFEDAF82430EB
:403CC00000221A60039BA04A002BBFBF01232360039B23F00043B8BF0393DDF80C80A4BF0023236028F000431B0D1B0593421DD1229A42F20F731360029B43B9934A944B45
:403D0000C8F31300002814BF1846104600E09048249B002B00F04A85C37813B100F1080300E0C31C249A136000F040BDDDE902450022002320462946FEF7CEFF074658B18E
:403D4000229A01231360249B002B00F0228581481860013800F02ABD14AB019315AB009322462B46504601F017F8C8F30A56059056B1C5F3130343F07F51204641F4401195
:403D8000A6F2FF3611971DE0159B149E1E4406F23243202B0ADD029A06F21240C3F1400322FA00F008FA03F3184304E0C3F12000029B03FA00F0FEF7B1FC0123A1F1F871EF
:403DC000013E11930022644BFEF76AFB58A3D3E90023FEF719FD58A3D3E90023FEF762FB044630460D46FEF7A9FC55A3D3E90023FEF70AFD02460B4620462946FEF752FB74
:403E000004460D46FEF79AFF00228346002320462946FEF76BFF58B15846FEF78FFC02460B4620462946FEF757FF08B90BF1FF3BBBF1160F0DD8494901EBCB01DDE9022353
:403E4000D1E90001FEF770FF30B10BF1FF3B002300E00123109300E01090149B9E1B731E089343BFC3F10009002308934FF00009BBF1000F07DB089BCDF834B05B44089346
:403E80000023099306E0CBF1000309930023CBEB09090D93209B092B27D8052BC4BF043B2093209BA3F10203CCBF00250125032B20D8DFE803F0060E0204012302E0012396
:403EC00008E000230C93219B002B1CDD069398461EE000230C93219B5B4403F1010806934346012BB8BF012312E00125002320930C9501E001230C934FF0FF3306939846A5
:403F00000022122303E00123069398461A462192DAF8244000226260042101F114029A421ED86268013262604900F6E7AFF3008061436F63A787D23FB3C8608B288AC63FA7
:403F4000FB799F501344D33F0000F07F5A74081063740810377408100000F83FA87408106168504600F08FFCDAF8243020601B680793B8F10E0F00F25D81002D00F05A81D8
:403F80009DED027BBBF1000F8DED0E7B31DDA04A0BF00F0302EBC30393ED007B4FEA2B14E2068DED0A7B0CD59A4BDDE90E01D3E90823FEF753FD04F00F04CDE9020103267A
:403FC00000E00226934D6CB1E30708D5DDE90A01D5E90023FEF718FCCDE90A01013664100835F0E7DDE90A23DDE90201FEF736FD20E0CBF1000404B3854B864D04F00F02B7
:4040000003EBC203D3E90023DDE90E01FEF7FCFBCDE9020124110023022654B1E70705D5D5E90023FEF7F0FB0136012364100835F3E71BB1CDE9020100E00226109BEBB1AC
:40404000DDE902450022744B20462946FEF74EFEA0B1B8F1000F11D0069B002B40F3E6800BF1FF330A9300226C4B20462946FEF7CBFB0136CDE90201069F02E0CDF828B0A5
:4040800047463046FEF75AFBDDE90223FEF7BCFB0022634BFEF706FA0446A1F15075CFB90022604BDDE90201FEF7FAF922462B46CDE90201FEF738FE002840F04182224670
:4040C00005F10043DDE90201FEF710FE002840F02E82ABE00C9A4E4B791E002A4AD003EBC103D3E9002300204F49FEF7B7FC22462B46FEF7D5F9079C05460E46DDE9020176
:40410000FEF71CFE1290FEF719FB02460B46DDE90201FEF7C5F9129B303304F8013B2A463346CDE90201FEF7E1FD002840F02183DDE9022300203849FEF7B2F92A463346E2
:40414000FEF7D4FD002840F0D280079BE31ABB426CDA0022314B28463146FEF755FB002205460E462D4BDDE90201FEF74DFBCDE90201C3E703EBC10122462B46D1E900013F
:40418000FEF742FB079BCDE91201DC191D46DDE90201FEF7D3FD0646FEF7D0FA303602460B46DDE90201FEF77BF905F8016BAC42CDE902014FF0000223D11B4BDDE91201BC
:4041C000FEF770F902460B46DDE90201FEF7ACFD002840F08C80DDE9122300201249FEF75FF902460B46DDE90201FEF77FFDE8B114F8013C302B04F1FF3240F0BA8214463E
:40420000F6E7064BFEF700FBCDE90201BFE700BFA8740810807408100000F03F0000244000001C40000014400000E03FDDE90E34CDE90234159B002B7CDBBBF10E0F79DC5C
:404240008F4B03EBCB03D3E90067219B002B14DAB8F1000F11DC40F06C810022894B30463946FEF7D1FADDE90223FEF753FD45464646002840F05F8166E1079C32463B46E1
:40428000DDE90201FEF7EAFBFEF758FD0546FEF755FA32463B46FEF7B7FA0B460246DDE90201FEF7FDF805F1300E04F801EB079BC3EB040EF045CDE902012ED102460B4693
:4042C000FEF7F0F88046894602460B4630463946FEF70CFD78B942464B4630463946FEF7FBFC002800F04782E90704D443E2DDF828B000E01C4614F8012C392A04F1FF3315
:4043000007D1079A9A42F5D1079930220BF1010B0A701A7801321A702DE200225A4BFEF773FA00220023CDE90201FEF7D5FC0028A4D020E20C9A002A2DD0209A012A0ADC6D
:40434000119A12B103F2334302E0149BC3F13603099D4C4615E0099B08F1FF35AB42BFBF099B0995EA1A0D9BB7BF9B185D1B0D930025B8F1000FB9BFC8EB090400234C4684
:404380004346089A01211A4450469944089200F04EFB064602E0099D0C9E4C465CB1089B002B08DDA342089AA8BF2346C3EB0909E41AD31A0893099B002B1DDD0C9BABB1D3
:4043C00085B131462A46504600F0CCFB059A01460646504600F034FB05990746504600F087FA0597099B5A1B06D000E0099A0599504600F0B7FB05900121504600F017FB47
:404400000D9B05465BB31A460146504600F0AAFB209B012B054618DC029B83B9039BC3F3130373B9039B23F000473F0D3F054FB1089B013309F101090893012702E00027E5
:4044400000E0029F0D9B73B100E000272B6905EB8303186900F09EFAC0F1200004E0209B012BD9DD0D9F0120089B184410F01F000ED0C0F12003042B08DDC0F11C0008E01D
:40448000A8740810000014400000244006D018461C30089B0344814404440893B9F1000F05DD4A460599504600F0AAFB0590089B002B05DD29461A46504600F0A1FB054689
:4044C000109BEBB12946059800F0EBFB002817DA00230A220599504600F021FA0C9B05900BF1FF3B002B00F05881002331460A22504600F014FA069B002B064637DC33E0EE
:40450000B8F1000F2ADC209B022B27DDCDF81880069B83B929460522504600F000FA01460546059800F0BDFB00280DDC03E03D4600E000252E46219B079C6FEA030B0AE00A
:40454000DDF828B03D463E46079B079A5C1C312313700BF1010BB0460026F7E00C9BCDF8188023B9079CB1E0209B022BD0DC002C05DD31462246504600F042FB06469FB106
:404580007168504600F07FF9326902320446920006F10C010C3000F06BF901222146504600F02EFB804600E0B046029BDDF81C9003F00103089329460598FFF7CFFA31461E
:4045C000044600F13007059800F06BFB424602902946504600F081FBC36802463BB901460990059800F05DFB099A034600E0012311465046099300F07BF9099B4BB9209A60
