:020000041000EA
:4000000000400208230100100D00000085010010000000000000000000000000000000000000000000000000000000008101001000000000000000008101001081010010E9
:400040008101001081010010810100108101001081010010810100108101001081010010810100108101001081010010810100108101001081010010810100108101001060
:400080008101001081010010810100108101001081010010810100108101001081010010810100108101001081010010810100108101001081010010810100108101001020
:4000C00010B5064C2378002B07D1054B002B02D0044800E000BF0123237010BD300500080000000054270010084B10B5002B03D00749084800E000BF07480368002B00D1BC
:4001000010BD064B002BFBD09847F9E7000000003405000854270010E8000008000000007047FFF7FDFF72B60F4C104DAC4209DA21686268A368043B02DBC858D050FAE73B
:400140000C34F3E70A490B4A0020521A02DD043A8850FCDC084809490860BFF34F8F00F0E3F800F01DF8FEE7582700107027001030050008080700080000000808ED00E0AE
:40018000FEE7FEE700B504207146084202D0EFF3098001E0EFF30880043001F003F9FEE710B562B6014800F03FF9FEE70000081010B5002000F036FF10BD0000F8B5E0233B
:4001C000504C9B00E2580F231340D022990092000919885807224C4D0240032A05D0042A05D0002A0FD0494811E028680FE0C022920089581F220A40112A01D0132A04D1D9
:400200008020000203E0424801E0FA20C001002B27D1B223B1210322DB00C900E658635867581B0F3F0F1340174205D0354F7958090F0A40012A01D1F20701D4032B3AD1F4
:40024000B023344ADB00E658A158E758C904C90C01F060FBB603F901B60BC90F7043013127E0012B27D1C823C0210322DB00C900E658635867583F0F174205D0214F795888
:40028000090F0A40012A01D1F20703D49B009B0F032B10D1C0227F23D200A758A1583B401F27A658090A3940584301F033FB310C394001F02FFBE0239B00E3589B069B0F73
:4002C000D840154B68601C691969240A090E013101F020FBE1B2A860013101F01BFB0F4BE860286104000E49C01801F013FBFA210C4B28758900E01801F00CFBA861C003AF
:40030000E861F8BD00002640C000000800366E0100127A0084050000000021403F420F0040420F00E703000010B5254801F0ECFAB022E0213020234CD200A35889005B001F
:400340005B08A35063588343635080235B04A3501D4A1E4BE250A02204339201E250FF221B4BE25001F0BEFAC02201215200A3588B43A35000F014F9FFF720FFB0235B0585
:400380005A78002A02D05B78212B03D10022114BDA605A60104C80212200042000F0D6FC2000103000F04CFD0C4B1B6851331B78002B02D00A4800F07FFD00F01BFC10BDEC
:4003C0009C2600100000264001000200840500008C050000E00023404C05000804070008681A0010024BD86F032318407047C0460400214010B501F054F8074A074BD16F4E
:400400000B4007490B43D367102306490A681A42FCD001F04AF810BD04002140FCFF00000100FA058800214070B50F4C060001F038F8E36F0500DB439B0701D1FFF7DAFFD5
:40044000B0230A4A9B00D650E26F094B09491340094A1343E36710230A681A42FCD0280001F023F870BDC0460400214000002140FCFF0000880021400300FA05174B70B5F0
:400480001B681C003F342478844224D9032922D8002902D1072A0CD91DE0012902D10F2A07D918E0022902D1032A02D913E0002A11D11D0003269C6870331B7871352D78B8
:4004C0001A40C0233140A9409B00C018800011430151002000E0024870BDC0460407000801004A00F0B5032835D8002802D107290CD930E0012802D10F2907D92BE00228AB
:4005000002D1032902D926E0002924D1134B1B681D001C0073352F78032570342678013424789A68A4462C00BC402700340072331B7831409C4023003B4380273F063B431A
:40054000194363462840984080230843DB00D050D358002000E00248F0BDC0460407000801004A0010B5072812D8FF2910D8094B80001A680902130074331C889368E31824
:4005800018180268044B134019430160002000E0024810BD04070008FF00FFFF01004A00F0B596218FB0002000F014FF00F0EAFE5A4C002810D100F0D7FEC0235B00E3584D
:4005C000574ADB0703D4A3585B005B08A3508021A35809060B43A350012001F0C3F8E8215048514D436C89012B400B434364426C0190120AD2B23A2A04D1436C4B4A1340B5
:400600000B43436400234A491A004A4801F028F9002349491A00494801F022F9002348491A00484801F01CF9C220012300224649C00001F015F9A0220321D200A358434EC7
:400640008B43A35033681A001F0088321968126808378A181168294011601A68F96F51180A681202120A100080225204104308601968FA6F3E338A1811680D4015601A787A
:400680000296002A07D0E0210F25244A890052582248AA4342501A78002A05D0E021302089006258824362501B78002B06D0E02280219200A35809060B43A35000210120F0
:4006C00000F0C8FC0021022000F0C4FC0021032000F0C0FC0021042000F0BCFC0021080000F0B8FC1A4E05AD2B00320083CA83C303CA03C3280000F0D5FC0396002800D092
:40070000FEE78027134A3F06A35813483B43A35000F024FD014E041E20D0FEE7000026400C05000000002740FF00FFFFFFC5FFDF0E0E0040010E0000000200402902000018
:40074000070B0040040B000000060040040700089C1A0010087F0000400D0300B04BB14AF1580A40F250F158AF4A0A40F250F2583A43F250043BF158AC4A0A40F250F1582D
:40078000AB4A0A40802189010A438021F250F25809020A43F250019B1A68A64B1340802252001343019A136001F03CF8A24A6421B35820001F43B7500127B358BB433B4328
:4007C000B35000F007FE3A0021000520FFF756FE1E213800FFF7C6FE39002000FFF782FE220039001320FFF749FE029B934E1B6893491A0076329B6812883800D218136893
:4008000033400B4313602100FFF76CFE220039001420FFF733FE220021001520FFF72EFE18212000FFF79EFE21002000FFF75AFE3A0039001620FFF721FE029B38001A6824
:4008400093687632191D1388CB181A68390016407C4A16431E600626FFF744FE220039001720FFF70BFE032221001820FFF706FE31210320FFF776FE03212000FFF732FEBD
:40088000022221003920FFF7F9FD31210220FFF769FE02212000FFF725FE6B4A6B4B1A6033006343039A0134D318197E18005A7E1F7D5B7D12021B023B430A4319001430B2
:4008C0008378C0781B040B4300061843002101F0B6F80C2CE4D1002623007343039A0136D3181F005C377A78387812020243B878110000040200F87864330A43000659786D
:4009000010431A7809020A43997809041143DA787B7912060A4339791B020B43B97909040B43F9790906194301F080F8122ED3D1474C0023210034315A5C46481218C818FF
:400940004078023310700A2BF6D101228321424B49001A60414B1E321A60414A414B1A60414A13680B43136023002A00403343CB43C243CB43C243CB43C229003B4800F0B4
:4009800041F923002A00643313CB13C213CB13C213CB13C22900364800F034F9354C2A002300083343CB43C243CB43C243CB43C22900314800F026F923002A002C3343CB8F
:4009C00043C243CB43C243CB43C229002B4800F019F923002A00503343CB43C243CB43C243CB43C22900264800F00CF923002A00743313CB13C213CB13C213CB13C2290063
:400A0000204800F0FFF880221F4B12061A6002221E4B1A601E4A1F4B1A600FB0F0BDC04604050000FEFCFFFFFFFF00FFFFF0FFFFFF8FFFFFFFFCFFFF0C050000FF0000FF85
:400A400000F30100004FC3000300FA05F00121409C1B001000283440047934400879344010220000A00138400079344000003240800232401C1C0010000332408003324083
:400A8000800432400005324000001D4100031D4101001180000E1F41044B1B681A00B03212881B6A5043C0187047C04604070008034B1B68B4331B68C0180068C00F7047E1
:400AC000040700081E4A0300904238D010D840282ED005D8002831D010282DD119482EE0802827D08021100049008B4227D023E0154A904214D008D8A022120690421DD0B7
:400B0000124AA020934211D016E0114A904209D0104A904208D0104A90420DD10F480EE0A42003E00E480AE00E4808E0C00306E00D4804E00D4802E00D4800E0002070474A
:400B40000600520001005000010000F0090000A0040000F0050000F0030000F00100520002005200030052000200500005005200FF00520010B50020FFF78EFFFFF798FF6B
:400B800000280CD1074B1868FFF79CFF0122064B1B685B689A609A68002AFCD100E0034810BDC046DC06000804070008020050000D4B10B51861002805D002230370FD3378
:400BC000437000234380094B1B681A0050321278002A08D051331B78002B04D002220449002000F0C9F910BDDC060008040700085101000810B502481430FFF7D9FF10BDF2
:400C0000DC06000830B5002830D000292ED0184BCD681B689A695C69821AD209120112190C6804601C007D342478241825601C007E3424780D69241825601C007F342478F0
:400C40004D69241825601C007C3424788D68241825604C68803384611B7818188B690360CB69002013600B6A536000E0014830BD0407000801005A00064B1B68B4331B68C8
:400C8000C3181B68002B03DA89B24160002000E0014870470407000801008A000368002B01DB034803E089B2C26081600020704701008A00064B1B68B4331B68C3181B6878
:400CC000002B03DAC36800200B6000E0014870470407000801008A00F8B5184B0D001B681A0031321278824224D9002922D01F240A6814401ED11900B0310E88104F70439B
:400D00001E6AD2088619210068683E6000F097FE21003000FFF7B0FF21002A003868FFF7BDFF011E04D13868FFF7A6FF031E02D0044B00E0044B1800F8BDC0460407000885
:400D4000F406000801018A0003018A0010B5002A0DD1002914D10B4B1A681300B0331B885843136AC018084B1860080009E0002906D0054B5960191D9A60FFF7ADFF00E0A5
:400D8000024810BD04070008F406000803018A00194BF7B51A680193D76804003B680E00834223D90025A94202D100F07AFB0500019B18680368002B01DB104C10E063090B
:400DC0005A01A41A0122A24079689B00CB18196811420DD00024914319600021FFF74CFF002E07D1280000F060FB03E0044C01E0044CF2E72000FEBDF406000803018800D3
:400E000004018A00020188000A4B1B68DA68136883420DD9430999005B01C31A0120984052688B581840431E9841034BC01800E002487047F40600080001880004018A00F1
:400E4000024B1A68002A00D11860704700070008F0B52C246043154C1F0024681E0A2018FF2427403440124E1B0C356807602E6A44608360B0352D886F43BF19076127000B
:400E800080377F01F71964010A4D476134191F043B436419236000238361059BC2610162002B01D01B888381F0BDC046000700080407000808100000F0B5038985B002ADC7
:400EC0002B80144B02681B68066ADB8E476A9B18AB7043680095826AC16A040003930369C068FFF7B5FF00213B000A0000913000FFF7AEFF216B280000F0DAF90023EA5EC8
:400F0000002A05DB1F231A401E3B9340024A136005B0F0BD0407000800E100E0F7B52C25124C6843276801933C182669002E08D04D4379198869002805D13568002D02DA21
:400F400003E00B4811E00B480FE06768012425004B689D4013882D041D431560F2608C61BC40019BA4B24B62B460FEBD0007000804028A0007028A002C235843064B1B6825
:400F80001818C369934204D9036A9200D150002000E002487047C046000700080A028A0073B5002642690400D56801962B0CB34221D01B0413601368194B00691B68B43325
:400FC0001B68C3181B68B34215DA01A9FFF772FEB0420CD10198E26903681E0C0378934205D2226A9B009B58002B00D0984731002069FFF741FEADB2002D0ED063691D6017
:4010000000251B68636AAB4202D09847656203E0A36A002B00D09847A56163691B6873BD040700082C2310B55843034B1B681818FFF7B6FF10BDC04600070008044B1030A8
:401040001B6880021B69C0580F2318407047C04604070008104B1B683C331B78834219D904290FD94B1EFF3B132B13D81F2319400A4B8000C018C02304229B00C15040338D
:40108000C25005E00723D0301940044B8000C150002000E002487047040700080000264001004A00F0B5B024244BE4001A59002A42DB02689203910BC279551EAA4112063F
:4010C0000A431A5102891E4D12042A4011008288C024D204D20C0A431A49A4055A50FF21C67A828936010E40174912020A400F213243867A31400A431600827B120722406D
:40110000110032000A43B121C9005A50E0228779D2003F02174039000C4E0D4A9C59144021439951018A9A5909040D40094900200A402A439A5100E00748F0BD00002640BF
:401140000000FF018405000000FF1F008C050000FFF8FFFFFFFF00FE03004A00F7B580210600050004272F4B2F4C0906E2580A43E2500093B223DB00E3583B4206D1002DBA
:4011800004D0012000F0E6F8013DF3E7B1218020C9006358254A80051340034363500192002E01D0002D06D0B0228021D200A35809060B43A3500127B223DB00E3583B4269
:4011C00006D1002D13D0012000F0C4F8013DF3E7002E01D0002D0CD0B122C0210020D200A35889050B43A350864217D119E0002EF2D0B122D200A35801990B40802189055E
:401200000B43A350083AA3585B005B08A350009B009AE3585B005B08A35001E0002D00D10348FEBD8C05000000002640FFFFFFCF02004A00134B30B51D6807222B002833F3
:401240001B78012B13D183081C00944319D19C00021BD20091402B6820331B191C6861400800FF21914001406140196009E00240802000060243802080012B680918890000
:40128000CA5030BD04070008064B10309A68064B9A4203D183009858995002E0034B8000C058704700ED00E00000000800000010F7B5061E019142D00023C05E002804DB04
:4012C000B178FFF7B7FF002400E01E4C0023F05E7668B601002815DB0321FF250140C9008D40C027AC46184B82089200D218BF00D3591D0063469D43FF2333408B402B43CD
:40130000D35113E00F2281B20A40083A0F4B92089200D218032319409940FC331D0033408D408B40D769AF433B43D361074B9A68074B9A4204D10199FFF7A6FF00E0014CEA
:401340002000FEBD0100560000E100E000ED00E00000000810B5034B1B78584300F098F810BDC046D400000880220020034B12069A649B6C834200DA014870470000274002
:40138000030046008022054B120198585B68DBB2002B02D08023DB021843704700002640FEE7000002680A4B10B51A6042685A6082689A60C268DA6002691A6142695A61CF
:4013C00082699A61C269DA61FFF7EAFF10BDC04610050008F0B51924002800D14B342A4B03261A688C42A4411300A8331F8813686442FD182B68B34323432B601368234D75
:40140000FF183B682B403B601300AA331B8815685F193D68B5432C433C6014681B4D1B191C6825401D60002808D00023102924D921338B429B415B4201331EE0130055337E
:401440001C780300A14218D9130056331C780123A14212D9130057331C780223A1420CD9130058331C783300A14206D9130059331B788B42404105231B1A0F21526810685B
:40148000884303431360F0BD04070008FFFCFFFF0230800803D001300238FCD1C046C0467047EFF3108072B6704780F310887047B0235B055A782120002A01D05878C0B2D1
:4014C0007047B0235B059A89002A02D0988980B201E080204000704770B5FFF7F2FF8022194B5200904215D119680F240B00022098330A681B68D3181A68A24302431A604A
:401500000A009C320B6812689A181368A3430343136017E0B0241B680C4A6405A5581A009832196812688A18C0211068890029430143116019009C311A680B68D318044A78
:40154000A2581A6070BDC04604070008481800004418000070B5FFF7B4FF8022194B5200904215D119680F240B00032098330A681B68D3181A68A24302431A600A009C328C
:401580000B6812689A181368A3430343136017E01B68B0251A00983219681268C1248A18C0216D0564012E598900106831430143116019009C311A680B68D3182A591A6091
:4015C00070BDC0460407000810B5FFF77AFF8022104B52001B6890420CD1190098311A680B68D21811680C4B0B40C021C9010B4313600EE0B021094A490588581900983186
:401600001A680B68D318C0221968920002430A431A6010BD04070008FF8FFFFF1818000070B5FFF74EFF8022144B52001B6890420CD1190098311A680B68D2181168104BAB
:401640000B408021C9010B43136015E01A00983219681268B0258A18C0210A4C6D052E598900106831430143116019009C311A680B68D3182A591A6070BDC0460407000845
:40168000FF8FFFFF4C18000010B50020FFF7D6FC0400FFF70DFF0123222801D863426341180010BD70B50400FFF702FF85B2FFF708FF06000020FFF7C1FC80235B000028BF
:4016C00011D19E4211D1222D35D880221D4B1E491B6824065D681D4B6E585204144033401C436C502CE09E4223D0164A1268156A9E4203D1002C05D1154A06E0002C03D16E
:40170000144A02E0144A00E0144A01212800FFF7C5FA002813D10B4B1B68B4331B68EB181A68002AFCDBEB6800201B0EA02B06D106E0222D03D9034B1B681D6ADAE7084841
:4017400070BDC0460407000818F00000FFFFFFFE010000300100000C010100300300000C04004200F7B50700FFF7ABFE80235B00984209D0FFF795FEB0230190234D244A8D
:401780005B05002F06D012E0FFF77EFF0028F1D1204E38E0AF50E8220120D2009C5CFFF781FFE4B2061E20D1FFF796FE11E01A4903205958A9501F21184A9C5C184AE4B29D
:4017C000AB588B4314390B43AB50FFF7C3FDFFF727FF1F2312491C406A589A4314436C50002F06D1FFF7F0FE3E000198FFF75DFE09E00720FFF7AEFDFFF7ACFE0020FFF78C
:4018000051FF0600F1E73000FEBDC04600002640307F00000300420010180000410700001CFF000010B50C4B042803D11A68104318600FE0094A000612681400A034116818
:4018400022688A18C02189040840042110601A688A431A6010BDC04610E000E004070008F7B504000093F0234C401B0105000E0017001C4030D1FFF714FE184B19680B00F6
:401880006E331B889A08013A3240920001926C2294468C446246128894468A686A31098894440E40360A5E43019A624496193368EAB29B0A9B02002F01D00134FF3400998D
:4018C0004D02802189000D4015431D432C433460FFF7EBFD002000E00148FEBD040700080100CE00C0228020064952008B58C0059B009B08034380208B508B5800060343AA
:401900008B50704700002640014B18607047C04604070008002243088B4274D303098B425FD3030A8B4244D3030B8B4228D3030C8B420DD3FF22090212BA030C8B4202D363
:401940001212090265D0030B8B4219D300E0090AC30B8B4201D3CB03C01A5241830B8B4201D38B03C01A5241430B8B4201D34B03C01A5241030B8B4201D30B03C01A5241A1
:40198000C30A8B4201D3CB02C01A5241830A8B4201D38B02C01A5241430A8B4201D34B02C01A5241030A8B4201D30B02C01A5241CDD2C3098B4201D3CB01C01A52418309B6
:4019C0008B4201D38B01C01A524143098B4201D34B01C01A524103098B4201D30B01C01A5241C3088B4201D3CB00C01A524183088B4201D38B00C01A524143088B4201D3CD
:401A00004B00C01A5241411A00D20146524110467047FFE701B5002000F006F802BDC0460029F7D076E770477047C046002310B59A4203D0CC5CC4540133F9E710BD0300EF
:401A40008218934202D019700133FAE770470000F8B5C046F8BC08BC9E467047F8B5C046F8BC08BC9E467047030000000100000001000000000000000503600004000000D3
:401A80000100000000000000010000000604600008000000BC060008B1010010F4010000140004010A0009050800000063010000002034407400802034407400002234406E
:401AC0007400802234407400002434407400802434407400002634407400802634407400002834407400802834407400002A34407400802A3440740000213440B41C0010FB
:401B00009000000000233440441D00109000000000253440D41D00109000000000273440641E00109000000000293440F41E001090000000002B3440841F00109000000065
:401B400000603440142000107C00000080603440902000107C000000006134400C2100107C00000080613440882100107C00000000623440042200107C000000806234404B
:401B8000802200107C00000000633440FC2200107C00000080633440782300107C00000000643440F42300107C00000080643440702400107C00000000653440EC2400100C
:401BC0007C00000080653440682500107C000000140136013E405C046301000010000000100000000002000000000A0000000000000000000000000000000000000000003D
:401C00000F0000000C0000005000000068AA00000000000000000000000000001212000000000000000000000000000000000000004000BA00000000080000000000000001
:401C40000000000000001D1D0000000000000000000000004000000000000000020000000000000000000000000000000500000020000000000400007777F60000000000DB
:401C800000000000000000000000000000000000500000000000000000000000000006060000000000000000000000000000000008000800000000000000000000000000B8
:401CC000FFFFFFFFFFFFFFFFFFFFFFFFFFFFFFFFFFFFFFFFFF000000FFFFFFFFFFFFFFFFFFFFFFFFFFFFFFFFFFFFFFFFFF000000000000000000000000000000000000000E
:401D00000000000000000000FFFFFFFFFFFFFFFFFFFFFFFF1111111111111111111111111111111111111111111111111111111111111111111111111111111111111111C3
:401D400011111111000000000000000000000000FFFFFFFFFFFFFFFFFFFFFFFFFFFFFFFFFFFFFFFFFF000000FFFFFFFFFFFFFFFFFFFFFFFFFFFFFFFFFFFFFFFFFF00000049
:401D80000000000000000000000000000000001F0000000000000000FFFFFFFFFFFFFFFFFFFFFFFF1111111111111111111111111111111111111111111111111111111134
:401DC0001111111111111111111111111111111111111111000000000000000000000000FFFFFFFFFFFFFFFFFFFFFFFFFFFFFFFFFFFFFFFFFF000000FFFFFFFFFFFFFFFFAC
:401E0000FFFFFFFFFFFFFFFFFFFFFFFFFF000000000000000000000000000000000000000000000000000000FFFFFFFFFFFFFFFFFFFFFFFF111111111111111111111111EF
:401E4000111111111111111111111111111111111111111111111111111111111111111111111111000000000000000000000000FFFFFFFFFFFFFFFFFFFFFFFFFFFFFFFF0E
:401E8000FFFFFFFFFF000000FFFFFFFFFFFFFFFFFFFFFFFFFFFFFFFFFFFFFFFFFF000000000000000000000000000000000000000000000000000000FFFFFFFFFFFFFFFF44
:401EC000FFFFFFFF111111111111111111111111111111111111111111111111111111111111111111111111111111111111111111111111010000000000000000000000B5
:401F0000FFFF4FFFFFFFFFFFFFFFFFFFFFFFFFFFFFFFFFFFFF000000FFFFFFFFFFFFFFFFFFFFFFFFFFFFFFFFFFFFFFFFFF000000000000000000000000000000000000007B
:401F40000F00400000000000FFFFFFFFFFFFFFFFFFFFFFFF1111111111111111111111111111111111111111111111111121111111111D1111111111111111111111111116
:401F800011111111000000000000000000000000FFFFFFFFFFFFFFFFFFFFFFFFFFFFFFFFFFFFFFFFFF000000FFFFFFFFFFFFFFFFFFFFFFFFFFFFFFFFFFFFFFFFFF00000007
:401FC000000000000000000000000000000000000000000000000000FFFFFFFFFFFFFFFFFFFFFFFF1111111111111111111111111111111111111111111111111111111111
:40200000111111111111111111111111111111111111111100000000000000001F1F1F1F1F1F1F1F1F1F1F1F1F1F1F1F1F1F1F1F1F1F1F1F1F1F1F1F1F1F1F1F000000006C
:402040000000000000000000000000000000000000000000FFFFFFFFFFFFFFFFFFFFFFFF11111111111111111111111111111111111111111111111111111111111111114C
:402080001111111111111111111111111111111100000000000000001F1F1F1F1F1F1F1F1F1F1F1F1F1F1F1F1F1F1F1F1F1F1F1F1F1F1F1F1F1F1F1F000000000000000030
:4020C000000000000000000B0000000000000000FFFFFFFFFFFFFFFFFFFFFFFF1111111111111111111111111111111111111111111111111111111111111011111111117E
:4021000011111111111111111111111100000000000000001F1F1F1F1F1F1F1F1F1F1F1F1F1F1F1F1F1F1F1F1F1F1F1F1F1F1F1F1F1F1F1F000000000000000000000000F3
:40214000000000000000000000000000FFFFFFFFFFFFFFFFFFFFFFFF111111111111111111111111111111111111111F1111111111111111111110111111111111111111B6
:40218000111111111111111100000000000000001F0B1F1F1F1F1F1F1F1F1F1F1F1F1F1F1F1F1F1F1F1F1F1F0C0B0310101F1F1F000000000000000000000000000000002C
:4021C0000000000000000000FFFFFFFFFFFFFFFFFFFFFFFF11111111111111111181111111F111111111111F121111111111111111111011111111111111111111111111A1
:402200001111111100000000000000001F1F1F1F1F1F1F1F1F1F1F1F1F1F1F1F1F1F1F1F1F1F1F1F1F1F1F1F1F1F1F1F000000000000000000000000000000000F00F0007B
:4022400000000000FFFFFFFFFFFFFFFFFFFFFFFF11111111111111111111111111D111111111111D111111111111111111111111111111111111111111111111111111116E
:4022800000000000000000001F1F1F1F1F1F1F1F1F1F1F1F1F1F1F1F1F1F1F1F1F1F1F1F1F1F1F1F1F1F1F1F0000000000000000000000000000000000000000000000003E
:4022C000FFFFFFFFFFFFFFFFFFFFFFFF11111111111111111111111111111111111111111111111111111111111111111111111111111111111111111111111100000000BA
:40230000000000001F1F1F1F1F1F1F1F1F1F1F1F1F1F1F1F1F1F1F1F1F1F1F1F1F1F1F1F1F1F1F1F000000000000000000000000000000000000000000000000FFFFFFFFC1
:40234000FFFFFFFFFFFFFFFF111111111111111111111111111111111111111111111111111111111111111111111111111111111111111111111111000000000000000035
:402380001F1F1F1F011F1F1F1F1F1F1F1F1F1F1F1F1F1F1F1F1F1F1F1F1F1F1F1F1F1F1F0000000000000000000000000000001F0000000000000000FFFFFFFFFFFFFFFF44
:4023C000FFFFFFFF11111111111111111111E11111111111111111111111111111111111111111111111111111111111111111111111111100000000000000001F1F1F1F65
:402400001F1F1F1F1F1F1F1F1F1F1F1F1F1F1F1F1F1F1F1F1F1F1F1F1F1F1F1F000000000000000000000000000000000000000000000000FFFFFFFFFFFFFFFFFFFFFFFF44
:4024400011111111111111111111111111111111111111111111111111111111111111111111111111111111111111111111111100000000000000001F1F1F1F1F1F1F1F34
:402480001F1F1F1F1F1F1F1F1F1F1F1F1F1F1F1F1F1F1F1F1F1F1F1F000000000000000000000000000000000000000000000000FFFFFFFFFFFFFFFFFFFFFFFF11111111FC
:4024C000111111111111111111111111111111111111111111111111111111111111111111111111111111111111111100000000000000001F1F1F1F1F1F1F1F1F1F1F1F7C
:402500001F1F1F1F1F1F1F1F1F1F1F1F1F1F1F1F1F1F1F1F000000000000000000000000000000000000000000000000FFFFFFFFFFFFFFFFFFFFFFFF1111111111111111B3
:402540001111111111111111111111111111111111111111111111111111111111111111111111111111111100000000000000001F1F1F1F1F1F1F1F1F1F1F1F1F1F1F1FC3
:402580001F1F1F1F1F1F1F1F1F1F1F1F1F1F1F1F000000000000000000000000000000000000000000000000FFFFFFFFFFFFFFFFFFFFFFFF1111111111111111111111116B
:4025C000111111111111111111111111111111111111111111111111111111111111111111111111000020400000244000000040000000000000234000003040000031402F
:4026000000009F40000022400000104002020202020202020210101D800017007500FF030602063604102000000000007FC0000000040000000000000019324B647D0080FA
:402640004000080B100000000000FF012002001F00800004FF081018001000140018001C4044484C50000000081000000800000004000000041000000012000004210000D4
:40268000002100000016000040114002C41300138013A013200000001C0000000000214000002540000001400000344000002440000031400000324000001F41000023405F
:4026C00000001140010101010101010101101010800019005500F0000501053B04101C01010000000FC000000004000001010101011D3A5778960008200010120800000014
:40270000001F00000010000F002000023F06080E00080009000A000B24282C3034000000100000009000000088000000080000008000000004F0000000F000004002000006
:402740002005A000D00100018001A0012000000010000000000000000000001000000008C000000078270010C00000085004000030050008D80100000048E80100127A00FA
:4027800000093D0000093D0000093D0004000000A00F00000000D007E9000010C10000100000000080B230B5C00020D0104B07211C682300B0331B885943236ACB181A68EE
:4027C000002AFCDA3E220B4B06251A600A4A0B4B1A60A3220A4BD2009D500A4A98509858206A09180020486099580029FCDA30BD04070008040126401E1F000008012640DB
:40280000000026401C05000010B54378FF2B11D100F0C2F90400042000F0AEF9C3685A68012311681943116011681942FCD1200000F08AF910BDF7B507000020019100F06E
:402840009BF93C4B06001B681A005033B43215681B784519002B27D000F066F9009003283CD1062000F088F900F07EF9041E5DD100F052F9304B984258D0304A23002100C6
:402880001269012000F068F9041E4FD1002000F043F9294A2A4B904203D09C4246D00134F4E79C421AD141E000F076F9234A04000121300000F040F9002808D1002F08D0CF
:4028C0002B68002BFCDB00F077F9050002E01D4D00E01D4D200000F037F928E000F05CF91A4B1B4A0400D358002B06DA134A0121300000F021F9002801D0124D0CE0019821
:40290000FFF750FF002F06D02B68002BFCDB00F053F9050000E00C4D009B032BDAD10121002000F031F90028F9D1D3E7054D2800FEBDC0460407000801018800DC06000800
:40294000F049020005005200010050001C05000000002640F0B5674C85B0236803905B68019300F021F9212846D1236807251A00B032128855431A6AAA1811680029FCDADE
:402980000220D1680143D160D168C9072FD5D1681E00029108218C469C44614688361C683068C96F6118241868460F6824680089240A24060443FF203F0200040740274319
:4029C0009024D76008684C4A240110402043086030681968091808680240144362460C601968D26F8A18126832688A1812681B6AED1800236B606B680421404A13690B43F7
:402A00001361039B012B01D030BF00E020BF39490A680C001300B033188807234343126A9B181A68002AFCDA00F0BEF8212830D1236807261A00B032128856431A6AB218BD
:402A4000D168C9071ED519000831CF6F1968CF193868D568FF22284912022D0A154008400400280020433860180088301C68006820181C6A05683419E4682940240C224068
:402A80000A43026002221B6AF618F3689343F36022E0019BFC331B69002B1DD1A323184A1849194E194FDB000D68D45830680F600627D7503E233360154B3E37D750D75874
:402AC000002FFCDA019B134AFC331A61A3230C4ADB000D60D4503060064B1A681300B033198807234B43126A9B1800225A6005B0F0BDC04604070008FF00FFFF00ED00E0A4
:402B00000000264008012640040126401E1F00001C050000AAAAAAAA01B40248844601BC604700BF090E001001B40248844601BC604700BFE503001001B40248844601BCD2
:402B4000604700BF9D0C001001B40248844601BC604700BFAB14001001B40248844601BC604700BF1D0F001001B40248844601BC604700BFB10A001001B40248844601BC16
:402B8000604700BF990A001001B40248844601BC604700BF910D001001B40248844601BC604700BFA314001001B40248844601BC604700BFB114001001B40248844601BC68
:402BC000604700BF750B00100000000000000000000000000000000000000000000000000000000000000000000000000000000000000000000000000000000000000000DF
:0200000490303A
:0200000041F2CB
:0200000490501A
:0C0000000005E2F021002101E2FC62F2A8
:00000001FF